{
  "_format": "hh-sol-artifact-1",
  "contractName": "ERC721A",
  "sourceName": "contracts/ERC721a.sol",
  "abi": [
    {
      "inputs": [
        {
          "internalType": "string",
          "name": "name_",
          "type": "string"
        },
        {
          "internalType": "string",
          "name": "symbol_",
          "type": "string"
        },
        {
          "internalType": "uint256",
          "name": "maxBatchSize_",
          "type": "uint256"
        }
      ],
      "stateMutability": "nonpayable",
      "type": "constructor"
    },
    {
      "anonymous": false,
      "inputs": [
        {
          "indexed": true,
          "internalType": "address",
          "name": "owner",
          "type": "address"
        },
        {
          "indexed": true,
          "internalType": "address",
          "name": "approved",
          "type": "address"
        },
        {
          "indexed": true,
          "internalType": "uint256",
          "name": "tokenId",
          "type": "uint256"
        }
      ],
      "name": "Approval",
      "type": "event"
    },
    {
      "anonymous": false,
      "inputs": [
        {
          "indexed": true,
          "internalType": "address",
          "name": "owner",
          "type": "address"
        },
        {
          "indexed": true,
          "internalType": "address",
          "name": "operator",
          "type": "address"
        },
        {
          "indexed": false,
          "internalType": "bool",
          "name": "approved",
          "type": "bool"
        }
      ],
      "name": "ApprovalForAll",
      "type": "event"
    },
    {
      "anonymous": false,
      "inputs": [
        {
          "indexed": true,
          "internalType": "address",
          "name": "from",
          "type": "address"
        },
        {
          "indexed": true,
          "internalType": "address",
          "name": "to",
          "type": "address"
        },
        {
          "indexed": true,
          "internalType": "uint256",
          "name": "tokenId",
          "type": "uint256"
        }
      ],
      "name": "Transfer",
      "type": "event"
    },
    {
      "inputs": [
        {
          "internalType": "address",
          "name": "to",
          "type": "address"
        },
        {
          "internalType": "uint256",
          "name": "tokenId",
          "type": "uint256"
        }
      ],
      "name": "approve",
      "outputs": [],
      "stateMutability": "nonpayable",
      "type": "function"
    },
    {
      "inputs": [
        {
          "internalType": "address",
          "name": "owner",
          "type": "address"
        }
      ],
      "name": "balanceOf",
      "outputs": [
        {
          "internalType": "uint256",
          "name": "",
          "type": "uint256"
        }
      ],
      "stateMutability": "view",
      "type": "function"
    },
    {
      "inputs": [
        {
          "internalType": "uint256",
          "name": "tokenId",
          "type": "uint256"
        }
      ],
      "name": "getApproved",
      "outputs": [
        {
          "internalType": "address",
          "name": "",
          "type": "address"
        }
      ],
      "stateMutability": "view",
      "type": "function"
    },
    {
      "inputs": [
        {
          "internalType": "address",
          "name": "owner",
          "type": "address"
        },
        {
          "internalType": "address",
          "name": "operator",
          "type": "address"
        }
      ],
      "name": "isApprovedForAll",
      "outputs": [
        {
          "internalType": "bool",
          "name": "",
          "type": "bool"
        }
      ],
      "stateMutability": "view",
      "type": "function"
    },
    {
      "inputs": [],
      "name": "name",
      "outputs": [
        {
          "internalType": "string",
          "name": "",
          "type": "string"
        }
      ],
      "stateMutability": "view",
      "type": "function"
    },
    {
      "inputs": [],
      "name": "nextOwnerToExplicitlySet",
      "outputs": [
        {
          "internalType": "uint256",
          "name": "",
          "type": "uint256"
        }
      ],
      "stateMutability": "view",
      "type": "function"
    },
    {
      "inputs": [
        {
          "internalType": "uint256",
          "name": "tokenId",
          "type": "uint256"
        }
      ],
      "name": "ownerOf",
      "outputs": [
        {
          "internalType": "address",
          "name": "",
          "type": "address"
        }
      ],
      "stateMutability": "view",
      "type": "function"
    },
    {
      "inputs": [
        {
          "internalType": "address",
          "name": "from",
          "type": "address"
        },
        {
          "internalType": "address",
          "name": "to",
          "type": "address"
        },
        {
          "internalType": "uint256",
          "name": "tokenId",
          "type": "uint256"
        }
      ],
      "name": "safeTransferFrom",
      "outputs": [],
      "stateMutability": "nonpayable",
      "type": "function"
    },
    {
      "inputs": [
        {
          "internalType": "address",
          "name": "from",
          "type": "address"
        },
        {
          "internalType": "address",
          "name": "to",
          "type": "address"
        },
        {
          "internalType": "uint256",
          "name": "tokenId",
          "type": "uint256"
        },
        {
          "internalType": "bytes",
          "name": "_data",
          "type": "bytes"
        }
      ],
      "name": "safeTransferFrom",
      "outputs": [],
      "stateMutability": "nonpayable",
      "type": "function"
    },
    {
      "inputs": [
        {
          "internalType": "address",
          "name": "operator",
          "type": "address"
        },
        {
          "internalType": "bool",
          "name": "approved",
          "type": "bool"
        }
      ],
      "name": "setApprovalForAll",
      "outputs": [],
      "stateMutability": "nonpayable",
      "type": "function"
    },
    {
      "inputs": [
        {
          "internalType": "bytes4",
          "name": "interfaceId",
          "type": "bytes4"
        }
      ],
      "name": "supportsInterface",
      "outputs": [
        {
          "internalType": "bool",
          "name": "",
          "type": "bool"
        }
      ],
      "stateMutability": "view",
      "type": "function"
    },
    {
      "inputs": [],
      "name": "symbol",
      "outputs": [
        {
          "internalType": "string",
          "name": "",
          "type": "string"
        }
      ],
      "stateMutability": "view",
      "type": "function"
    },
    {
      "inputs": [
        {
          "internalType": "uint256",
          "name": "index",
          "type": "uint256"
        }
      ],
      "name": "tokenByIndex",
      "outputs": [
        {
          "internalType": "uint256",
          "name": "",
          "type": "uint256"
        }
      ],
      "stateMutability": "view",
      "type": "function"
    },
    {
      "inputs": [
        {
          "internalType": "address",
          "name": "owner",
          "type": "address"
        },
        {
          "internalType": "uint256",
          "name": "index",
          "type": "uint256"
        }
      ],
      "name": "tokenOfOwnerByIndex",
      "outputs": [
        {
          "internalType": "uint256",
          "name": "",
          "type": "uint256"
        }
      ],
      "stateMutability": "view",
      "type": "function"
    },
    {
      "inputs": [
        {
          "internalType": "uint256",
          "name": "tokenId",
          "type": "uint256"
        }
      ],
      "name": "tokenURI",
      "outputs": [
        {
          "internalType": "string",
          "name": "",
          "type": "string"
        }
      ],
      "stateMutability": "view",
      "type": "function"
    },
    {
      "inputs": [],
      "name": "totalSupply",
      "outputs": [
        {
          "internalType": "uint256",
          "name": "",
          "type": "uint256"
        }
      ],
      "stateMutability": "view",
      "type": "function"
    },
    {
      "inputs": [
        {
          "internalType": "address",
          "name": "from",
          "type": "address"
        },
        {
          "internalType": "address",
          "name": "to",
          "type": "address"
        },
        {
          "internalType": "uint256",
          "name": "tokenId",
          "type": "uint256"
        }
      ],
      "name": "transferFrom",
      "outputs": [],
      "stateMutability": "nonpayable",
      "type": "function"
    }
  ],
  "bytecode": "0x60a06040526000805560006007553480156200001a57600080fd5b506040516200331338038062003313833981810160405281019062000040919062000202565b6000811162000086576040517f08c379a00000000000000000000000000000000000000000000000000000000081526004016200007d90620002b1565b60405180910390fd5b82600190805190602001906200009e929190620000c9565b508160029080519060200190620000b7929190620000c9565b508060808181525050505050620004c7565b828054620000d79062000383565b90600052602060002090601f016020900481019282620000fb576000855562000147565b82601f106200011657805160ff191683800117855562000147565b8280016001018555821562000147579182015b828111156200014657825182559160200191906001019062000129565b5b5090506200015691906200015a565b5090565b5b80821115620001755760008160009055506001016200015b565b5090565b6000620001906200018a84620002fc565b620002d3565b905082815260208101848484011115620001a957600080fd5b620001b68482856200034d565b509392505050565b600082601f830112620001d057600080fd5b8151620001e284826020860162000179565b91505092915050565b600081519050620001fc81620004ad565b92915050565b6000806000606084860312156200021857600080fd5b600084015167ffffffffffffffff8111156200023357600080fd5b6200024186828701620001be565b935050602084015167ffffffffffffffff8111156200025f57600080fd5b6200026d86828701620001be565b92505060406200028086828701620001eb565b9150509250925092565b60006200029960278362000332565b9150620002a6826200045e565b604082019050919050565b60006020820190508181036000830152620002cc816200028a565b9050919050565b6000620002df620002f2565b9050620002ed8282620003b9565b919050565b6000604051905090565b600067ffffffffffffffff8211156200031a57620003196200041e565b5b62000325826200044d565b9050602081019050919050565b600082825260208201905092915050565b6000819050919050565b60005b838110156200036d57808201518184015260208101905062000350565b838111156200037d576000848401525b50505050565b600060028204905060018216806200039c57607f821691505b60208210811415620003b357620003b2620003ef565b5b50919050565b620003c4826200044d565b810181811067ffffffffffffffff82111715620003e657620003e56200041e565b5b80604052505050565b7f4e487b7100000000000000000000000000000000000000000000000000000000600052602260045260246000fd5b7f4e487b7100000000000000000000000000000000000000000000000000000000600052604160045260246000fd5b6000601f19601f8301169050919050565b7f455243373231413a206d61782062617463682073697a65206d7573742062652060008201527f6e6f6e7a65726f00000000000000000000000000000000000000000000000000602082015250565b620004b88162000343565b8114620004c457600080fd5b50565b608051612e29620004ea6000396000818161158501526115ae0152612e296000f3fe608060405234801561001057600080fd5b506004361061010b5760003560e01c80634f6ccce7116100a2578063a22cb46511610071578063a22cb465146102de578063b88d4fde146102fa578063c87b56dd14610316578063d7224ba014610346578063e985e9c5146103645761010b565b80634f6ccce7146102305780636352211e1461026057806370a082311461029057806395d89b41146102c05761010b565b806318160ddd116100de57806318160ddd146101aa57806323b872dd146101c85780632f745c59146101e457806342842e0e146102145761010b565b806301ffc9a71461011057806306fdde0314610140578063081812fc1461015e578063095ea7b31461018e575b600080fd5b61012a60048036038101906101259190611f1e565b610394565b6040516101379190612301565b60405180910390f35b6101486104de565b604051610155919061231c565b60405180910390f35b61017860048036038101906101739190611f70565b610570565b604051610185919061229a565b60405180910390f35b6101a860048036038101906101a39190611ee2565b6105f5565b005b6101b261070e565b6040516101bf919061251e565b60405180910390f35b6101e260048036038101906101dd9190611ddc565b610717565b005b6101fe60048036038101906101f99190611ee2565b610727565b60405161020b919061251e565b60405180910390f35b61022e60048036038101906102299190611ddc565b610925565b005b61024a60048036038101906102459190611f70565b610945565b604051610257919061251e565b60405180910390f35b61027a60048036038101906102759190611f70565b610998565b604051610287919061229a565b60405180910390f35b6102aa60048036038101906102a59190611d77565b6109ae565b6040516102b7919061251e565b60405180910390f35b6102c8610a97565b6040516102d5919061231c565b60405180910390f35b6102f860048036038101906102f39190611ea6565b610b29565b005b610314600480360381019061030f9190611e2b565b610caa565b005b610330600480360381019061032b9190611f70565b610d06565b60405161033d919061231c565b60405180910390f35b61034e610dad565b60405161035b919061251e565b60405180910390f35b61037e60048036038101906103799190611da0565b610db3565b60405161038b9190612301565b60405180910390f35b60007f80ac58cd000000000000000000000000000000000000000000000000000000007bffffffffffffffffffffffffffffffffffffffffffffffffffffffff1916827bffffffffffffffffffffffffffffffffffffffffffffffffffffffff1916148061045f57507f5b5e139f000000000000000000000000000000000000000000000000000000007bffffffffffffffffffffffffffffffffffffffffffffffffffffffff1916827bffffffffffffffffffffffffffffffffffffffffffffffffffffffff1916145b806104c757507f780e9d63000000000000000000000000000000000000000000000000000000007bffffffffffffffffffffffffffffffffffffffffffffffffffffffff1916827bffffffffffffffffffffffffffffffffffffffffffffffffffffffff1916145b806104d757506104d682610e47565b5b9050919050565b6060600180546104ed906127d2565b80601f0160208091040260200160405190810160405280929190818152602001828054610519906127d2565b80156105665780601f1061053b57610100808354040283529160200191610566565b820191906000526020600020905b81548152906001019060200180831161054957829003601f168201915b5050505050905090565b600061057b82610eb1565b6105ba576040517f08c379a00000000000000000000000000000000000000000000000000000000081526004016105b1906124fe565b60405180910390fd5b6005600083815260200190815260200160002060009054906101000a900473ffffffffffffffffffffffffffffffffffffffff169050919050565b600061060082610998565b90508073ffffffffffffffffffffffffffffffffffffffff168373ffffffffffffffffffffffffffffffffffffffff161415610671576040517f08c379a00000000000000000000000000000000000000000000000000000000081526004016106689061247e565b60405180910390fd5b8073ffffffffffffffffffffffffffffffffffffffff16610690610ebe565b73ffffffffffffffffffffffffffffffffffffffff1614806106bf57506106be816106b9610ebe565b610db3565b5b6106fe576040517f08c379a00000000000000000000000000000000000000000000000000000000081526004016106f5906123be565b60405180910390fd5b610709838383610ec6565b505050565b60008054905090565b610722838383610f78565b505050565b6000610732836109ae565b8210610773576040517f08c379a000000000000000000000000000000000000000000000000000000000815260040161076a9061233e565b60405180910390fd5b600061077d61070e565b905060008060005b838110156108e3576000600360008381526020019081526020016000206040518060400160405290816000820160009054906101000a900473ffffffffffffffffffffffffffffffffffffffff1673ffffffffffffffffffffffffffffffffffffffff1673ffffffffffffffffffffffffffffffffffffffff1681526020016000820160149054906101000a900467ffffffffffffffff1667ffffffffffffffff1667ffffffffffffffff16815250509050600073ffffffffffffffffffffffffffffffffffffffff16816000015173ffffffffffffffffffffffffffffffffffffffff161461087757806000015192505b8773ffffffffffffffffffffffffffffffffffffffff168373ffffffffffffffffffffffffffffffffffffffff1614156108cf57868414156108c057819550505050505061091f565b83806108cb90612835565b9450505b5080806108db90612835565b915050610785565b506040517f08c379a0000000000000000000000000000000000000000000000000000000008152600401610916906124be565b60405180910390fd5b92915050565b61094083838360405180602001604052806000815250610caa565b505050565b600061094f61070e565b8210610990576040517f08c379a00000000000000000000000000000000000000000000000000000000081526004016109879061237e565b60405180910390fd5b819050919050565b60006109a382611531565b600001519050919050565b60008073ffffffffffffffffffffffffffffffffffffffff168273ffffffffffffffffffffffffffffffffffffffff161415610a1f576040517f08c379a0000000000000000000000000000000000000000000000000000000008152600401610a16906123de565b60405180910390fd5b600460008373ffffffffffffffffffffffffffffffffffffffff1673ffffffffffffffffffffffffffffffffffffffff16815260200190815260200160002060000160009054906101000a90046fffffffffffffffffffffffffffffffff166fffffffffffffffffffffffffffffffff169050919050565b606060028054610aa6906127d2565b80601f0160208091040260200160405190810160405280929190818152602001828054610ad2906127d2565b8015610b1f5780601f10610af457610100808354040283529160200191610b1f565b820191906000526020600020905b815481529060010190602001808311610b0257829003601f168201915b5050505050905090565b610b31610ebe565b73ffffffffffffffffffffffffffffffffffffffff168273ffffffffffffffffffffffffffffffffffffffff161415610b9f576040517f08c379a0000000000000000000000000000000000000000000000000000000008152600401610b969061243e565b60405180910390fd5b8060066000610bac610ebe565b73ffffffffffffffffffffffffffffffffffffffff1673ffffffffffffffffffffffffffffffffffffffff16815260200190815260200160002060008473ffffffffffffffffffffffffffffffffffffffff1673ffffffffffffffffffffffffffffffffffffffff16815260200190815260200160002060006101000a81548160ff0219169083151502179055508173ffffffffffffffffffffffffffffffffffffffff16610c59610ebe565b73ffffffffffffffffffffffffffffffffffffffff167f17307eab39ab6107e8899845ad3d59bd9653f200f220920489ca2b5937696c3183604051610c9e9190612301565b60405180910390a35050565b610cb5848484610f78565b610cc184848484611734565b610d00576040517f08c379a0000000000000000000000000000000000000000000000000000000008152600401610cf79061249e565b60405180910390fd5b50505050565b6060610d1182610eb1565b610d50576040517f08c379a0000000000000000000000000000000000000000000000000000000008152600401610d479061241e565b60405180910390fd5b6000610d5a6118cb565b90506000815111610d7a5760405180602001604052806000815250610da5565b80610d84846118e2565b604051602001610d95929190612276565b6040516020818303038152906040525b915050919050565b60075481565b6000600660008473ffffffffffffffffffffffffffffffffffffffff1673ffffffffffffffffffffffffffffffffffffffff16815260200190815260200160002060008373ffffffffffffffffffffffffffffffffffffffff1673ffffffffffffffffffffffffffffffffffffffff16815260200190815260200160002060009054906101000a900460ff16905092915050565b60007f01ffc9a7000000000000000000000000000000000000000000000000000000007bffffffffffffffffffffffffffffffffffffffffffffffffffffffff1916827bffffffffffffffffffffffffffffffffffffffffffffffffffffffff1916149050919050565b6000805482109050919050565b600033905090565b826005600084815260200190815260200160002060006101000a81548173ffffffffffffffffffffffffffffffffffffffff021916908373ffffffffffffffffffffffffffffffffffffffff160217905550818373ffffffffffffffffffffffffffffffffffffffff168273ffffffffffffffffffffffffffffffffffffffff167f8c5be1e5ebec7d5bd14f71427d1e84f3dd0314c0f7b2291e5b200ac8c7c3b92560405160405180910390a4505050565b6000610f8382611531565b90506000816000015173ffffffffffffffffffffffffffffffffffffffff16610faa610ebe565b73ffffffffffffffffffffffffffffffffffffffff1614806110065750610fcf610ebe565b73ffffffffffffffffffffffffffffffffffffffff16610fee84610570565b73ffffffffffffffffffffffffffffffffffffffff16145b806110225750611021826000015161101c610ebe565b610db3565b5b905080611064576040517f08c379a000000000000000000000000000000000000000000000000000000000815260040161105b9061245e565b60405180910390fd5b8473ffffffffffffffffffffffffffffffffffffffff16826000015173ffffffffffffffffffffffffffffffffffffffff16146110d6576040517f08c379a00000000000000000000000000000000000000000000000000000000081526004016110cd906123fe565b60405180910390fd5b600073ffffffffffffffffffffffffffffffffffffffff168473ffffffffffffffffffffffffffffffffffffffff161415611146576040517f08c379a000000000000000000000000000000000000000000000000000000000815260040161113d9061239e565b60405180910390fd5b6111538585856001611a06565b6111636000848460000151610ec6565b6001600460008773ffffffffffffffffffffffffffffffffffffffff1673ffffffffffffffffffffffffffffffffffffffff16815260200190815260200160002060000160008282829054906101000a90046fffffffffffffffffffffffffffffffff166111d1919061266e565b92506101000a8154816fffffffffffffffffffffffffffffffff02191690836fffffffffffffffffffffffffffffffff1602179055506001600460008673ffffffffffffffffffffffffffffffffffffffff1673ffffffffffffffffffffffffffffffffffffffff16815260200190815260200160002060000160008282829054906101000a90046fffffffffffffffffffffffffffffffff1661127591906125d2565b92506101000a8154816fffffffffffffffffffffffffffffffff02191690836fffffffffffffffffffffffffffffffff16021790555060405180604001604052808573ffffffffffffffffffffffffffffffffffffffff1681526020014267ffffffffffffffff168152506003600085815260200190815260200160002060008201518160000160006101000a81548173ffffffffffffffffffffffffffffffffffffffff021916908373ffffffffffffffffffffffffffffffffffffffff16021790555060208201518160000160146101000a81548167ffffffffffffffff021916908367ffffffffffffffff160217905550905050600060018461137b9190612618565b9050600073ffffffffffffffffffffffffffffffffffffffff166003600083815260200190815260200160002060000160009054906101000a900473ffffffffffffffffffffffffffffffffffffffff1673ffffffffffffffffffffffffffffffffffffffff1614156114c1576113f181610eb1565b156114c0576040518060400160405280846000015173ffffffffffffffffffffffffffffffffffffffff168152602001846020015167ffffffffffffffff168152506003600083815260200190815260200160002060008201518160000160006101000a81548173ffffffffffffffffffffffffffffffffffffffff021916908373ffffffffffffffffffffffffffffffffffffffff16021790555060208201518160000160146101000a81548167ffffffffffffffff021916908367ffffffffffffffff1602179055509050505b5b838573ffffffffffffffffffffffffffffffffffffffff168773ffffffffffffffffffffffffffffffffffffffff167fddf252ad1be2c89b69c2b068fc378daa952ba7f163c4a11628f55a4df523b3ef60405160405180910390a46115298686866001611a0c565b505050505050565b611539611c6c565b61154282610eb1565b611581576040517f08c379a00000000000000000000000000000000000000000000000000000000081526004016115789061235e565b60405180910390fd5b60007f000000000000000000000000000000000000000000000000000000000000000083106115e55760017f0000000000000000000000000000000000000000000000000000000000000000846115d891906126a2565b6115e29190612618565b90505b60008390505b8181106116f3576000600360008381526020019081526020016000206040518060400160405290816000820160009054906101000a900473ffffffffffffffffffffffffffffffffffffffff1673ffffffffffffffffffffffffffffffffffffffff1673ffffffffffffffffffffffffffffffffffffffff1681526020016000820160149054906101000a900467ffffffffffffffff1667ffffffffffffffff1667ffffffffffffffff16815250509050600073ffffffffffffffffffffffffffffffffffffffff16816000015173ffffffffffffffffffffffffffffffffffffffff16146116df5780935050505061172f565b5080806116eb906127a8565b9150506115eb565b506040517f08c379a0000000000000000000000000000000000000000000000000000000008152600401611726906124de565b60405180910390fd5b919050565b60006117558473ffffffffffffffffffffffffffffffffffffffff16611a12565b156118be578373ffffffffffffffffffffffffffffffffffffffff1663150b7a0261177e610ebe565b8786866040518563ffffffff1660e01b81526004016117a094939291906122b5565b602060405180830381600087803b1580156117ba57600080fd5b505af19250505080156117eb57506040513d601f19601f820116820180604052508101906117e89190611f47565b60015b61186e573d806000811461181b576040519150601f19603f3d011682016040523d82523d6000602084013e611820565b606091505b50600081511415611866576040517f08c379a000000000000000000000000000000000000000000000000000000000815260040161185d9061249e565b60405180910390fd5b805181602001fd5b63150b7a0260e01b7bffffffffffffffffffffffffffffffffffffffffffffffffffffffff1916817bffffffffffffffffffffffffffffffffffffffffffffffffffffffff1916149150506118c3565b600190505b949350505050565b606060405180602001604052806000815250905090565b6060600060016118f184611a35565b01905060008167ffffffffffffffff811115611936577f4e487b7100000000000000000000000000000000000000000000000000000000600052604160045260246000fd5b6040519080825280601f01601f1916602001820160405280156119685781602001600182028036833780820191505090505b509050600082602001820190505b6001156119fb578080600190039150507f3031323334353637383961626364656600000000000000000000000000000000600a86061a8153600a85816119e5577f4e487b7100000000000000000000000000000000000000000000000000000000600052601260045260246000fd5b04945060008514156119f6576119fb565b611976565b819350505050919050565b50505050565b50505050565b6000808273ffffffffffffffffffffffffffffffffffffffff163b119050919050565b600080600090507a184f03e93ff9f4daa797ed6e38ed64bf6a1f0100000000000000008310611ab9577a184f03e93ff9f4daa797ed6e38ed64bf6a1f0100000000000000008381611aaf577f4e487b7100000000000000000000000000000000000000000000000000000000600052601260045260246000fd5b0492506040810190505b6d04ee2d6d415b85acef81000000008310611b1c576d04ee2d6d415b85acef81000000008381611b12577f4e487b7100000000000000000000000000000000000000000000000000000000600052601260045260246000fd5b0492506020810190505b662386f26fc100008310611b7157662386f26fc100008381611b67577f4e487b7100000000000000000000000000000000000000000000000000000000600052601260045260246000fd5b0492506010810190505b6305f5e1008310611bc0576305f5e1008381611bb6577f4e487b7100000000000000000000000000000000000000000000000000000000600052601260045260246000fd5b0492506008810190505b6127108310611c0b576127108381611c01577f4e487b7100000000000000000000000000000000000000000000000000000000600052601260045260246000fd5b0492506004810190505b60648310611c545760648381611c4a577f4e487b7100000000000000000000000000000000000000000000000000000000600052601260045260246000fd5b0492506002810190505b600a8310611c63576001810190505b80915050919050565b6040518060400160405280600073ffffffffffffffffffffffffffffffffffffffff168152602001600067ffffffffffffffff1681525090565b6000611cb9611cb48461255e565b612539565b905082815260208101848484011115611cd157600080fd5b611cdc848285612766565b509392505050565b600081359050611cf381612d97565b92915050565b600081359050611d0881612dae565b92915050565b600081359050611d1d81612dc5565b92915050565b600081519050611d3281612dc5565b92915050565b600082601f830112611d4957600080fd5b8135611d59848260208601611ca6565b91505092915050565b600081359050611d7181612ddc565b92915050565b600060208284031215611d8957600080fd5b6000611d9784828501611ce4565b91505092915050565b60008060408385031215611db357600080fd5b6000611dc185828601611ce4565b9250506020611dd285828601611ce4565b9150509250929050565b600080600060608486031215611df157600080fd5b6000611dff86828701611ce4565b9350506020611e1086828701611ce4565b9250506040611e2186828701611d62565b9150509250925092565b60008060008060808587031215611e4157600080fd5b6000611e4f87828801611ce4565b9450506020611e6087828801611ce4565b9350506040611e7187828801611d62565b925050606085013567ffffffffffffffff811115611e8e57600080fd5b611e9a87828801611d38565b91505092959194509250565b60008060408385031215611eb957600080fd5b6000611ec785828601611ce4565b9250506020611ed885828601611cf9565b9150509250929050565b60008060408385031215611ef557600080fd5b6000611f0385828601611ce4565b9250506020611f1485828601611d62565b9150509250929050565b600060208284031215611f3057600080fd5b6000611f3e84828501611d0e565b91505092915050565b600060208284031215611f5957600080fd5b6000611f6784828501611d23565b91505092915050565b600060208284031215611f8257600080fd5b6000611f9084828501611d62565b91505092915050565b611fa2816126d6565b82525050565b611fb1816126e8565b82525050565b6000611fc28261258f565b611fcc81856125a5565b9350611fdc818560208601612775565b611fe58161290b565b840191505092915050565b6000611ffb8261259a565b61200581856125b6565b9350612015818560208601612775565b61201e8161290b565b840191505092915050565b60006120348261259a565b61203e81856125c7565b935061204e818560208601612775565b80840191505092915050565b60006120676022836125b6565b91506120728261291c565b604082019050919050565b600061208a602a836125b6565b91506120958261296b565b604082019050919050565b60006120ad6023836125b6565b91506120b8826129ba565b604082019050919050565b60006120d06025836125b6565b91506120db82612a09565b604082019050919050565b60006120f36039836125b6565b91506120fe82612a58565b604082019050919050565b6000612116602b836125b6565b915061212182612aa7565b604082019050919050565b60006121396026836125b6565b915061214482612af6565b604082019050919050565b600061215c602f836125b6565b915061216782612b45565b604082019050919050565b600061217f601a836125b6565b915061218a82612b94565b602082019050919050565b60006121a26032836125b6565b91506121ad82612bbd565b604082019050919050565b60006121c56022836125b6565b91506121d082612c0c565b604082019050919050565b60006121e86033836125b6565b91506121f382612c5b565b604082019050919050565b600061220b602e836125b6565b915061221682612caa565b604082019050919050565b600061222e602f836125b6565b915061223982612cf9565b604082019050919050565b6000612251602d836125b6565b915061225c82612d48565b604082019050919050565b6122708161275c565b82525050565b60006122828285612029565b915061228e8284612029565b91508190509392505050565b60006020820190506122af6000830184611f99565b92915050565b60006080820190506122ca6000830187611f99565b6122d76020830186611f99565b6122e46040830185612267565b81810360608301526122f68184611fb7565b905095945050505050565b60006020820190506123166000830184611fa8565b92915050565b600060208201905081810360008301526123368184611ff0565b905092915050565b600060208201905081810360008301526123578161205a565b9050919050565b600060208201905081810360008301526123778161207d565b9050919050565b60006020820190508181036000830152612397816120a0565b9050919050565b600060208201905081810360008301526123b7816120c3565b9050919050565b600060208201905081810360008301526123d7816120e6565b9050919050565b600060208201905081810360008301526123f781612109565b9050919050565b600060208201905081810360008301526124178161212c565b9050919050565b600060208201905081810360008301526124378161214f565b9050919050565b6000602082019050818103600083015261245781612172565b9050919050565b6000602082019050818103600083015261247781612195565b9050919050565b60006020820190508181036000830152612497816121b8565b9050919050565b600060208201905081810360008301526124b7816121db565b9050919050565b600060208201905081810360008301526124d7816121fe565b9050919050565b600060208201905081810360008301526124f781612221565b9050919050565b6000602082019050818103600083015261251781612244565b9050919050565b60006020820190506125336000830184612267565b92915050565b6000612543612554565b905061254f8282612804565b919050565b6000604051905090565b600067ffffffffffffffff821115612579576125786128dc565b5b6125828261290b565b9050602081019050919050565b600081519050919050565b600081519050919050565b600082825260208201905092915050565b600082825260208201905092915050565b600081905092915050565b60006125dd82612720565b91506125e883612720565b9250826fffffffffffffffffffffffffffffffff0382111561260d5761260c61287e565b5b828201905092915050565b60006126238261275c565b915061262e8361275c565b9250827fffffffffffffffffffffffffffffffffffffffffffffffffffffffffffffffff038211156126635761266261287e565b5b828201905092915050565b600061267982612720565b915061268483612720565b9250828210156126975761269661287e565b5b828203905092915050565b60006126ad8261275c565b91506126b88361275c565b9250828210156126cb576126ca61287e565b5b828203905092915050565b60006126e18261273c565b9050919050565b60008115159050919050565b60007fffffffff0000000000000000000000000000000000000000000000000000000082169050919050565b60006fffffffffffffffffffffffffffffffff82169050919050565b600073ffffffffffffffffffffffffffffffffffffffff82169050919050565b6000819050919050565b82818337600083830152505050565b60005b83811015612793578082015181840152602081019050612778565b838111156127a2576000848401525b50505050565b60006127b38261275c565b915060008214156127c7576127c661287e565b5b600182039050919050565b600060028204905060018216806127ea57607f821691505b602082108114156127fe576127fd6128ad565b5b50919050565b61280d8261290b565b810181811067ffffffffffffffff8211171561282c5761282b6128dc565b5b80604052505050565b60006128408261275c565b91507fffffffffffffffffffffffffffffffffffffffffffffffffffffffffffffffff8214156128735761287261287e565b5b600182019050919050565b7f4e487b7100000000000000000000000000000000000000000000000000000000600052601160045260246000fd5b7f4e487b7100000000000000000000000000000000000000000000000000000000600052602260045260246000fd5b7f4e487b7100000000000000000000000000000000000000000000000000000000600052604160045260246000fd5b6000601f19601f8301169050919050565b7f455243373231413a206f776e657220696e646578206f7574206f6620626f756e60008201527f6473000000000000000000000000000000000000000000000000000000000000602082015250565b7f455243373231413a206f776e657220717565727920666f72206e6f6e6578697360008201527f74656e7420746f6b656e00000000000000000000000000000000000000000000602082015250565b7f455243373231413a20676c6f62616c20696e646578206f7574206f6620626f7560008201527f6e64730000000000000000000000000000000000000000000000000000000000602082015250565b7f455243373231413a207472616e7366657220746f20746865207a65726f20616460008201527f6472657373000000000000000000000000000000000000000000000000000000602082015250565b7f455243373231413a20617070726f76652063616c6c6572206973206e6f74206f60008201527f776e6572206e6f7220617070726f76656420666f7220616c6c00000000000000602082015250565b7f455243373231413a2062616c616e636520717565727920666f7220746865207a60008201527f65726f2061646472657373000000000000000000000000000000000000000000602082015250565b7f455243373231413a207472616e736665722066726f6d20696e636f727265637460008201527f206f776e65720000000000000000000000000000000000000000000000000000602082015250565b7f4552433732314d657461646174613a2055524920717565727920666f72206e6f60008201527f6e6578697374656e7420746f6b656e0000000000000000000000000000000000602082015250565b7f455243373231413a20617070726f766520746f2063616c6c6572000000000000600082015250565b7f455243373231413a207472616e736665722063616c6c6572206973206e6f742060008201527f6f776e6572206e6f7220617070726f7665640000000000000000000000000000602082015250565b7f455243373231413a20617070726f76616c20746f2063757272656e74206f776e60008201527f6572000000000000000000000000000000000000000000000000000000000000602082015250565b7f455243373231413a207472616e7366657220746f206e6f6e204552433732315260008201527f6563656976657220696d706c656d656e74657200000000000000000000000000602082015250565b7f455243373231413a20756e61626c6520746f2067657420746f6b656e206f662060008201527f6f776e657220627920696e646578000000000000000000000000000000000000602082015250565b7f455243373231413a20756e61626c6520746f2064657465726d696e652074686560008201527f206f776e6572206f6620746f6b656e0000000000000000000000000000000000602082015250565b7f455243373231413a20617070726f76656420717565727920666f72206e6f6e6560008201527f78697374656e7420746f6b656e00000000000000000000000000000000000000602082015250565b612da0816126d6565b8114612dab57600080fd5b50565b612db7816126e8565b8114612dc257600080fd5b50565b612dce816126f4565b8114612dd957600080fd5b50565b612de58161275c565b8114612df057600080fd5b5056fea26469706673582212209d6dd1b530f37009e970de044a738a14b538a7b58d03c7f48fb6d2e082db264364736f6c63430008040033",
  "linkReferences": {},
  "deployedLinkReferences": {}
}