{
  "_format": "hh-sol-artifact-1",
  "contractName": "LW3Punks",
  "sourceName": "contracts/LW3Punks.sol",
  "abi": [
    {
      "inputs": [
        {
          "internalType": "string",
          "name": "baseURI",
          "type": "string"
        }
      ],
      "stateMutability": "nonpayable",
      "type": "constructor"
    },
    {
      "anonymous": false,
      "inputs": [
        {
          "indexed": true,
          "internalType": "address",
          "name": "owner",
          "type": "address"
        },
        {
          "indexed": true,
          "internalType": "address",
          "name": "approved",
          "type": "address"
        },
        {
          "indexed": true,
          "internalType": "uint256",
          "name": "tokenId",
          "type": "uint256"
        }
      ],
      "name": "Approval",
      "type": "event"
    },
    {
      "anonymous": false,
      "inputs": [
        {
          "indexed": true,
          "internalType": "address",
          "name": "owner",
          "type": "address"
        },
        {
          "indexed": true,
          "internalType": "address",
          "name": "operator",
          "type": "address"
        },
        {
          "indexed": false,
          "internalType": "bool",
          "name": "approved",
          "type": "bool"
        }
      ],
      "name": "ApprovalForAll",
      "type": "event"
    },
    {
      "anonymous": false,
      "inputs": [
        {
          "indexed": true,
          "internalType": "address",
          "name": "previousOwner",
          "type": "address"
        },
        {
          "indexed": true,
          "internalType": "address",
          "name": "newOwner",
          "type": "address"
        }
      ],
      "name": "OwnershipTransferred",
      "type": "event"
    },
    {
      "anonymous": false,
      "inputs": [
        {
          "indexed": true,
          "internalType": "address",
          "name": "from",
          "type": "address"
        },
        {
          "indexed": true,
          "internalType": "address",
          "name": "to",
          "type": "address"
        },
        {
          "indexed": true,
          "internalType": "uint256",
          "name": "tokenId",
          "type": "uint256"
        }
      ],
      "name": "Transfer",
      "type": "event"
    },
    {
      "stateMutability": "payable",
      "type": "fallback"
    },
    {
      "inputs": [],
      "name": "_paused",
      "outputs": [
        {
          "internalType": "bool",
          "name": "",
          "type": "bool"
        }
      ],
      "stateMutability": "view",
      "type": "function"
    },
    {
      "inputs": [],
      "name": "_price",
      "outputs": [
        {
          "internalType": "uint256",
          "name": "",
          "type": "uint256"
        }
      ],
      "stateMutability": "view",
      "type": "function"
    },
    {
      "inputs": [
        {
          "internalType": "address",
          "name": "to",
          "type": "address"
        },
        {
          "internalType": "uint256",
          "name": "tokenId",
          "type": "uint256"
        }
      ],
      "name": "approve",
      "outputs": [],
      "stateMutability": "nonpayable",
      "type": "function"
    },
    {
      "inputs": [
        {
          "internalType": "address",
          "name": "owner",
          "type": "address"
        }
      ],
      "name": "balanceOf",
      "outputs": [
        {
          "internalType": "uint256",
          "name": "",
          "type": "uint256"
        }
      ],
      "stateMutability": "view",
      "type": "function"
    },
    {
      "inputs": [
        {
          "internalType": "uint256",
          "name": "tokenId",
          "type": "uint256"
        }
      ],
      "name": "getApproved",
      "outputs": [
        {
          "internalType": "address",
          "name": "",
          "type": "address"
        }
      ],
      "stateMutability": "view",
      "type": "function"
    },
    {
      "inputs": [
        {
          "internalType": "address",
          "name": "owner",
          "type": "address"
        },
        {
          "internalType": "address",
          "name": "operator",
          "type": "address"
        }
      ],
      "name": "isApprovedForAll",
      "outputs": [
        {
          "internalType": "bool",
          "name": "",
          "type": "bool"
        }
      ],
      "stateMutability": "view",
      "type": "function"
    },
    {
      "inputs": [],
      "name": "maxTokenIds",
      "outputs": [
        {
          "internalType": "uint256",
          "name": "",
          "type": "uint256"
        }
      ],
      "stateMutability": "view",
      "type": "function"
    },
    {
      "inputs": [],
      "name": "mint",
      "outputs": [],
      "stateMutability": "payable",
      "type": "function"
    },
    {
      "inputs": [],
      "name": "name",
      "outputs": [
        {
          "internalType": "string",
          "name": "",
          "type": "string"
        }
      ],
      "stateMutability": "view",
      "type": "function"
    },
    {
      "inputs": [],
      "name": "owner",
      "outputs": [
        {
          "internalType": "address",
          "name": "",
          "type": "address"
        }
      ],
      "stateMutability": "view",
      "type": "function"
    },
    {
      "inputs": [
        {
          "internalType": "uint256",
          "name": "tokenId",
          "type": "uint256"
        }
      ],
      "name": "ownerOf",
      "outputs": [
        {
          "internalType": "address",
          "name": "",
          "type": "address"
        }
      ],
      "stateMutability": "view",
      "type": "function"
    },
    {
      "inputs": [],
      "name": "renounceOwnership",
      "outputs": [],
      "stateMutability": "nonpayable",
      "type": "function"
    },
    {
      "inputs": [
        {
          "internalType": "address",
          "name": "from",
          "type": "address"
        },
        {
          "internalType": "address",
          "name": "to",
          "type": "address"
        },
        {
          "internalType": "uint256",
          "name": "tokenId",
          "type": "uint256"
        }
      ],
      "name": "safeTransferFrom",
      "outputs": [],
      "stateMutability": "nonpayable",
      "type": "function"
    },
    {
      "inputs": [
        {
          "internalType": "address",
          "name": "from",
          "type": "address"
        },
        {
          "internalType": "address",
          "name": "to",
          "type": "address"
        },
        {
          "internalType": "uint256",
          "name": "tokenId",
          "type": "uint256"
        },
        {
          "internalType": "bytes",
          "name": "data",
          "type": "bytes"
        }
      ],
      "name": "safeTransferFrom",
      "outputs": [],
      "stateMutability": "nonpayable",
      "type": "function"
    },
    {
      "inputs": [
        {
          "internalType": "address",
          "name": "operator",
          "type": "address"
        },
        {
          "internalType": "bool",
          "name": "approved",
          "type": "bool"
        }
      ],
      "name": "setApprovalForAll",
      "outputs": [],
      "stateMutability": "nonpayable",
      "type": "function"
    },
    {
      "inputs": [
        {
          "internalType": "bool",
          "name": "val",
          "type": "bool"
        }
      ],
      "name": "setPaused",
      "outputs": [],
      "stateMutability": "nonpayable",
      "type": "function"
    },
    {
      "inputs": [
        {
          "internalType": "bytes4",
          "name": "interfaceId",
          "type": "bytes4"
        }
      ],
      "name": "supportsInterface",
      "outputs": [
        {
          "internalType": "bool",
          "name": "",
          "type": "bool"
        }
      ],
      "stateMutability": "view",
      "type": "function"
    },
    {
      "inputs": [],
      "name": "symbol",
      "outputs": [
        {
          "internalType": "string",
          "name": "",
          "type": "string"
        }
      ],
      "stateMutability": "view",
      "type": "function"
    },
    {
      "inputs": [
        {
          "internalType": "uint256",
          "name": "index",
          "type": "uint256"
        }
      ],
      "name": "tokenByIndex",
      "outputs": [
        {
          "internalType": "uint256",
          "name": "",
          "type": "uint256"
        }
      ],
      "stateMutability": "view",
      "type": "function"
    },
    {
      "inputs": [],
      "name": "tokenIds",
      "outputs": [
        {
          "internalType": "uint256",
          "name": "",
          "type": "uint256"
        }
      ],
      "stateMutability": "view",
      "type": "function"
    },
    {
      "inputs": [
        {
          "internalType": "address",
          "name": "owner",
          "type": "address"
        },
        {
          "internalType": "uint256",
          "name": "index",
          "type": "uint256"
        }
      ],
      "name": "tokenOfOwnerByIndex",
      "outputs": [
        {
          "internalType": "uint256",
          "name": "",
          "type": "uint256"
        }
      ],
      "stateMutability": "view",
      "type": "function"
    },
    {
      "inputs": [
        {
          "internalType": "uint256",
          "name": "tokenId",
          "type": "uint256"
        }
      ],
      "name": "tokenURI",
      "outputs": [
        {
          "internalType": "string",
          "name": "",
          "type": "string"
        }
      ],
      "stateMutability": "view",
      "type": "function"
    },
    {
      "inputs": [],
      "name": "totalSupply",
      "outputs": [
        {
          "internalType": "uint256",
          "name": "",
          "type": "uint256"
        }
      ],
      "stateMutability": "view",
      "type": "function"
    },
    {
      "inputs": [
        {
          "internalType": "address",
          "name": "from",
          "type": "address"
        },
        {
          "internalType": "address",
          "name": "to",
          "type": "address"
        },
        {
          "internalType": "uint256",
          "name": "tokenId",
          "type": "uint256"
        }
      ],
      "name": "transferFrom",
      "outputs": [],
      "stateMutability": "nonpayable",
      "type": "function"
    },
    {
      "inputs": [
        {
          "internalType": "address",
          "name": "newOwner",
          "type": "address"
        }
      ],
      "name": "transferOwnership",
      "outputs": [],
      "stateMutability": "nonpayable",
      "type": "function"
    },
    {
      "inputs": [],
      "name": "withdraw",
      "outputs": [],
      "stateMutability": "nonpayable",
      "type": "function"
    },
    {
      "stateMutability": "payable",
      "type": "receive"
    }
  ],
  "bytecode": "0x6080604052662386f26fc10000600c55600a600e553480156200002157600080fd5b50604051620040c1380380620040c1833981810160405281019062000047919062000317565b6040518060400160405280600881526020017f4c573350756e6b730000000000000000000000000000000000000000000000008152506040518060400160405280600481526020017f4c573350000000000000000000000000000000000000000000000000000000008152508160009080519060200190620000cb929190620001f5565b508060019080519060200190620000e4929190620001f5565b50505062000107620000fb6200012760201b60201c565b6200012f60201b60201c565b80600b90805190602001906200011f929190620001f5565b5050620004cc565b600033905090565b6000600a60009054906101000a900473ffffffffffffffffffffffffffffffffffffffff16905081600a60006101000a81548173ffffffffffffffffffffffffffffffffffffffff021916908373ffffffffffffffffffffffffffffffffffffffff1602179055508173ffffffffffffffffffffffffffffffffffffffff168173ffffffffffffffffffffffffffffffffffffffff167f8be0079c531659141344cd1fd0a4f28419497f9722a3daafe3b4186f6b6457e060405160405180910390a35050565b8280546200020390620003f1565b90600052602060002090601f01602090048101928262000227576000855562000273565b82601f106200024257805160ff191683800117855562000273565b8280016001018555821562000273579182015b828111156200027257825182559160200191906001019062000255565b5b50905062000282919062000286565b5090565b5b80821115620002a157600081600090555060010162000287565b5090565b6000620002bc620002b68462000385565b6200035c565b905082815260208101848484011115620002d557600080fd5b620002e2848285620003bb565b509392505050565b600082601f830112620002fc57600080fd5b81516200030e848260208601620002a5565b91505092915050565b6000602082840312156200032a57600080fd5b600082015167ffffffffffffffff8111156200034557600080fd5b6200035384828501620002ea565b91505092915050565b6000620003686200037b565b905062000376828262000427565b919050565b6000604051905090565b600067ffffffffffffffff821115620003a357620003a26200048c565b5b620003ae82620004bb565b9050602081019050919050565b60005b83811015620003db578082015181840152602081019050620003be565b83811115620003eb576000848401525b50505050565b600060028204905060018216806200040a57607f821691505b602082108114156200042157620004206200045d565b5b50919050565b6200043282620004bb565b810181811067ffffffffffffffff821117156200045457620004536200048c565b5b80604052505050565b7f4e487b7100000000000000000000000000000000000000000000000000000000600052602260045260246000fd5b7f4e487b7100000000000000000000000000000000000000000000000000000000600052604160045260246000fd5b6000601f19601f8301169050919050565b613be580620004dc6000396000f3fe6080604052600436106101855760003560e01c80634f6ccce7116100d15780638da5cb5b1161008a578063b88d4fde11610064578063b88d4fde14610559578063c87b56dd14610582578063e985e9c5146105bf578063f2fde38b146105fc5761018c565b80638da5cb5b146104da57806395d89b4114610505578063a22cb465146105305761018c565b80634f6ccce7146103b65780635f769621146103f35780636352211e1461041e57806370a082311461045b578063714cff5614610498578063715018a6146104c35761018c565b806316c61ccc1161013e57806323b872dd1161011857806323b872dd146103105780632f745c59146103395780633ccfd60b1461037657806342842e0e1461038d5761018c565b806316c61ccc1461028f57806318160ddd146102ba578063235b6ea1146102e55761018c565b806301ffc9a71461018e57806306fdde03146101cb578063081812fc146101f6578063095ea7b3146102335780631249c58b1461025c57806316c38b3c146102665761018c565b3661018c57005b005b34801561019a57600080fd5b506101b560048036038101906101b09190612b0a565b610625565b6040516101c29190613025565b60405180910390f35b3480156101d757600080fd5b506101e061069f565b6040516101ed9190613040565b60405180910390f35b34801561020257600080fd5b5061021d60048036038101906102189190612b5c565b610731565b60405161022a9190612fbe565b60405180910390f35b34801561023f57600080fd5b5061025a60048036038101906102559190612aa5565b610777565b005b61026461088f565b005b34801561027257600080fd5b5061028d60048036038101906102889190612ae1565b610992565b005b34801561029b57600080fd5b506102a46109b7565b6040516102b19190613025565b60405180910390f35b3480156102c657600080fd5b506102cf6109ca565b6040516102dc9190613302565b60405180910390f35b3480156102f157600080fd5b506102fa6109d7565b6040516103079190613302565b60405180910390f35b34801561031c57600080fd5b506103376004803603810190610332919061299f565b6109dd565b005b34801561034557600080fd5b50610360600480360381019061035b9190612aa5565b610a3d565b60405161036d9190613302565b60405180910390f35b34801561038257600080fd5b5061038b610ae2565b005b34801561039957600080fd5b506103b460048036038101906103af919061299f565b610bac565b005b3480156103c257600080fd5b506103dd60048036038101906103d89190612b5c565b610bcc565b6040516103ea9190613302565b60405180910390f35b3480156103ff57600080fd5b50610408610c63565b6040516104159190613302565b60405180910390f35b34801561042a57600080fd5b5061044560048036038101906104409190612b5c565b610c69565b6040516104529190612fbe565b60405180910390f35b34801561046757600080fd5b50610482600480360381019061047d919061293a565b610cf0565b60405161048f9190613302565b60405180910390f35b3480156104a457600080fd5b506104ad610da8565b6040516104ba9190613302565b60405180910390f35b3480156104cf57600080fd5b506104d8610dae565b005b3480156104e657600080fd5b506104ef610dc2565b6040516104fc9190612fbe565b60405180910390f35b34801561051157600080fd5b5061051a610dec565b6040516105279190613040565b60405180910390f35b34801561053c57600080fd5b5061055760048036038101906105529190612a69565b610e7e565b005b34801561056557600080fd5b50610580600480360381019061057b91906129ee565b610e94565b005b34801561058e57600080fd5b506105a960048036038101906105a49190612b5c565b610ef6565b6040516105b69190613040565b60405180910390f35b3480156105cb57600080fd5b506105e660048036038101906105e19190612963565b610f9d565b6040516105f39190613025565b60405180910390f35b34801561060857600080fd5b50610623600480360381019061061e919061293a565b611031565b005b60007f780e9d63000000000000000000000000000000000000000000000000000000007bffffffffffffffffffffffffffffffffffffffffffffffffffffffff1916827bffffffffffffffffffffffffffffffffffffffffffffffffffffffff191614806106985750610697826110b5565b5b9050919050565b6060600080546106ae90613501565b80601f01602080910402602001604051908101604052809291908181526020018280546106da90613501565b80156107275780601f106106fc57610100808354040283529160200191610727565b820191906000526020600020905b81548152906001019060200180831161070a57829003601f168201915b5050505050905090565b600061073c82611197565b6004600083815260200190815260200160002060009054906101000a900473ffffffffffffffffffffffffffffffffffffffff169050919050565b600061078282610c69565b90508073ffffffffffffffffffffffffffffffffffffffff168373ffffffffffffffffffffffffffffffffffffffff1614156107f3576040517f08c379a00000000000000000000000000000000000000000000000000000000081526004016107ea90613242565b60405180910390fd5b8073ffffffffffffffffffffffffffffffffffffffff166108126111e2565b73ffffffffffffffffffffffffffffffffffffffff16148061084157506108408161083b6111e2565b610f9d565b5b610880576040517f08c379a000000000000000000000000000000000000000000000000000000000815260040161087790613282565b60405180910390fd5b61088a83836111ea565b505050565b600d60009054906101000a900460ff16156108df576040517f08c379a00000000000000000000000000000000000000000000000000000000081526004016108d690613202565b60405180910390fd5b600e54600f5410610925576040517f08c379a000000000000000000000000000000000000000000000000000000000815260040161091c906132c2565b60405180910390fd5b600c5434101561096a576040517f08c379a000000000000000000000000000000000000000000000000000000000815260040161096190613262565b60405180910390fd5b6001600f600082825461097d91906133c1565b9250508190555061099033600f546112a3565b565b61099a6112c1565b80600d60006101000a81548160ff02191690831515021790555050565b600d60009054906101000a900460ff1681565b6000600880549050905090565b600c5481565b6109ee6109e86111e2565b8261133f565b610a2d576040517f08c379a0000000000000000000000000000000000000000000000000000000008152600401610a2490613062565b60405180910390fd5b610a388383836113d4565b505050565b6000610a4883610cf0565b8210610a89576040517f08c379a0000000000000000000000000000000000000000000000000000000008152600401610a8090613082565b60405180910390fd5b600660008473ffffffffffffffffffffffffffffffffffffffff1673ffffffffffffffffffffffffffffffffffffffff168152602001908152602001600020600083815260200190815260200160002054905092915050565b610aea6112c1565b6000610af4610dc2565b9050600047905060008273ffffffffffffffffffffffffffffffffffffffff1682604051610b2190612fa9565b60006040518083038185875af1925050503d8060008114610b5e576040519150601f19603f3d011682016040523d82523d6000602084013e610b63565b606091505b5050905080610ba7576040517f08c379a0000000000000000000000000000000000000000000000000000000008152600401610b9e90613122565b60405180910390fd5b505050565b610bc783838360405180602001604052806000815250610e94565b505050565b6000610bd66109ca565b8210610c17576040517f08c379a0000000000000000000000000000000000000000000000000000000008152600401610c0e906132a2565b60405180910390fd5b60088281548110610c51577f4e487b7100000000000000000000000000000000000000000000000000000000600052603260045260246000fd5b90600052602060002001549050919050565b600e5481565b600080610c75836116ce565b9050600073ffffffffffffffffffffffffffffffffffffffff168173ffffffffffffffffffffffffffffffffffffffff161415610ce7576040517f08c379a0000000000000000000000000000000000000000000000000000000008152600401610cde90613222565b60405180910390fd5b80915050919050565b60008073ffffffffffffffffffffffffffffffffffffffff168273ffffffffffffffffffffffffffffffffffffffff161415610d61576040517f08c379a0000000000000000000000000000000000000000000000000000000008152600401610d5890613182565b60405180910390fd5b600360008373ffffffffffffffffffffffffffffffffffffffff1673ffffffffffffffffffffffffffffffffffffffff168152602001908152602001600020549050919050565b600f5481565b610db66112c1565b610dc0600061170b565b565b6000600a60009054906101000a900473ffffffffffffffffffffffffffffffffffffffff16905090565b606060018054610dfb90613501565b80601f0160208091040260200160405190810160405280929190818152602001828054610e2790613501565b8015610e745780601f10610e4957610100808354040283529160200191610e74565b820191906000526020600020905b815481529060010190602001808311610e5757829003601f168201915b5050505050905090565b610e90610e896111e2565b83836117d1565b5050565b610ea5610e9f6111e2565b8361133f565b610ee4576040517f08c379a0000000000000000000000000000000000000000000000000000000008152600401610edb90613062565b60405180910390fd5b610ef08484848461193e565b50505050565b6060610f018261199a565b610f40576040517f08c379a0000000000000000000000000000000000000000000000000000000008152600401610f37906131e2565b60405180910390fd5b6000610f4a6119db565b90506000815111610f6a5760405180602001604052806000815250610f95565b80610f7484611a6d565b604051602001610f85929190612f7a565b6040516020818303038152906040525b915050919050565b6000600560008473ffffffffffffffffffffffffffffffffffffffff1673ffffffffffffffffffffffffffffffffffffffff16815260200190815260200160002060008373ffffffffffffffffffffffffffffffffffffffff1673ffffffffffffffffffffffffffffffffffffffff16815260200190815260200160002060009054906101000a900460ff16905092915050565b6110396112c1565b600073ffffffffffffffffffffffffffffffffffffffff168173ffffffffffffffffffffffffffffffffffffffff1614156110a9576040517f08c379a00000000000000000000000000000000000000000000000000000000081526004016110a0906130c2565b60405180910390fd5b6110b28161170b565b50565b60007f80ac58cd000000000000000000000000000000000000000000000000000000007bffffffffffffffffffffffffffffffffffffffffffffffffffffffff1916827bffffffffffffffffffffffffffffffffffffffffffffffffffffffff1916148061118057507f5b5e139f000000000000000000000000000000000000000000000000000000007bffffffffffffffffffffffffffffffffffffffffffffffffffffffff1916827bffffffffffffffffffffffffffffffffffffffffffffffffffffffff1916145b80611190575061118f82611b91565b5b9050919050565b6111a08161199a565b6111df576040517f08c379a00000000000000000000000000000000000000000000000000000000081526004016111d690613222565b60405180910390fd5b50565b600033905090565b816004600083815260200190815260200160002060006101000a81548173ffffffffffffffffffffffffffffffffffffffff021916908373ffffffffffffffffffffffffffffffffffffffff160217905550808273ffffffffffffffffffffffffffffffffffffffff1661125d83610c69565b73ffffffffffffffffffffffffffffffffffffffff167f8c5be1e5ebec7d5bd14f71427d1e84f3dd0314c0f7b2291e5b200ac8c7c3b92560405160405180910390a45050565b6112bd828260405180602001604052806000815250611bfb565b5050565b6112c96111e2565b73ffffffffffffffffffffffffffffffffffffffff166112e7610dc2565b73ffffffffffffffffffffffffffffffffffffffff161461133d576040517f08c379a0000000000000000000000000000000000000000000000000000000008152600401611334906131c2565b60405180910390fd5b565b60008061134b83610c69565b90508073ffffffffffffffffffffffffffffffffffffffff168473ffffffffffffffffffffffffffffffffffffffff16148061138d575061138c8185610f9d565b5b806113cb57508373ffffffffffffffffffffffffffffffffffffffff166113b384610731565b73ffffffffffffffffffffffffffffffffffffffff16145b91505092915050565b8273ffffffffffffffffffffffffffffffffffffffff166113f482610c69565b73ffffffffffffffffffffffffffffffffffffffff161461144a576040517f08c379a0000000000000000000000000000000000000000000000000000000008152600401611441906130e2565b60405180910390fd5b600073ffffffffffffffffffffffffffffffffffffffff168273ffffffffffffffffffffffffffffffffffffffff1614156114ba576040517f08c379a00000000000000000000000000000000000000000000000000000000081526004016114b190613142565b60405180910390fd5b6114c78383836001611c56565b8273ffffffffffffffffffffffffffffffffffffffff166114e782610c69565b73ffffffffffffffffffffffffffffffffffffffff161461153d576040517f08c379a0000000000000000000000000000000000000000000000000000000008152600401611534906130e2565b60405180910390fd5b6004600082815260200190815260200160002060006101000a81549073ffffffffffffffffffffffffffffffffffffffff02191690556001600360008573ffffffffffffffffffffffffffffffffffffffff1673ffffffffffffffffffffffffffffffffffffffff168152602001908152602001600020600082825403925050819055506001600360008473ffffffffffffffffffffffffffffffffffffffff1673ffffffffffffffffffffffffffffffffffffffff16815260200190815260200160002060008282540192505081905550816002600083815260200190815260200160002060006101000a81548173ffffffffffffffffffffffffffffffffffffffff021916908373ffffffffffffffffffffffffffffffffffffffff160217905550808273ffffffffffffffffffffffffffffffffffffffff168473ffffffffffffffffffffffffffffffffffffffff167fddf252ad1be2c89b69c2b068fc378daa952ba7f163c4a11628f55a4df523b3ef60405160405180910390a46116c98383836001611db6565b505050565b60006002600083815260200190815260200160002060009054906101000a900473ffffffffffffffffffffffffffffffffffffffff169050919050565b6000600a60009054906101000a900473ffffffffffffffffffffffffffffffffffffffff16905081600a60006101000a81548173ffffffffffffffffffffffffffffffffffffffff021916908373ffffffffffffffffffffffffffffffffffffffff1602179055508173ffffffffffffffffffffffffffffffffffffffff168173ffffffffffffffffffffffffffffffffffffffff167f8be0079c531659141344cd1fd0a4f28419497f9722a3daafe3b4186f6b6457e060405160405180910390a35050565b8173ffffffffffffffffffffffffffffffffffffffff168373ffffffffffffffffffffffffffffffffffffffff161415611840576040517f08c379a000000000000000000000000000000000000000000000000000000000815260040161183790613162565b60405180910390fd5b80600560008573ffffffffffffffffffffffffffffffffffffffff1673ffffffffffffffffffffffffffffffffffffffff16815260200190815260200160002060008473ffffffffffffffffffffffffffffffffffffffff1673ffffffffffffffffffffffffffffffffffffffff16815260200190815260200160002060006101000a81548160ff0219169083151502179055508173ffffffffffffffffffffffffffffffffffffffff168373ffffffffffffffffffffffffffffffffffffffff167f17307eab39ab6107e8899845ad3d59bd9653f200f220920489ca2b5937696c31836040516119319190613025565b60405180910390a3505050565b6119498484846113d4565b61195584848484611dbc565b611994576040517f08c379a000000000000000000000000000000000000000000000000000000000815260040161198b906130a2565b60405180910390fd5b50505050565b60008073ffffffffffffffffffffffffffffffffffffffff166119bc836116ce565b73ffffffffffffffffffffffffffffffffffffffff1614159050919050565b6060600b80546119ea90613501565b80601f0160208091040260200160405190810160405280929190818152602001828054611a1690613501565b8015611a635780601f10611a3857610100808354040283529160200191611a63565b820191906000526020600020905b815481529060010190602001808311611a4657829003601f168201915b5050505050905090565b606060006001611a7c84611f53565b01905060008167ffffffffffffffff811115611ac1577f4e487b7100000000000000000000000000000000000000000000000000000000600052604160045260246000fd5b6040519080825280601f01601f191660200182016040528015611af35781602001600182028036833780820191505090505b509050600082602001820190505b600115611b86578080600190039150507f3031323334353637383961626364656600000000000000000000000000000000600a86061a8153600a8581611b70577f4e487b7100000000000000000000000000000000000000000000000000000000600052601260045260246000fd5b0494506000851415611b8157611b86565b611b01565b819350505050919050565b60007f01ffc9a7000000000000000000000000000000000000000000000000000000007bffffffffffffffffffffffffffffffffffffffffffffffffffffffff1916827bffffffffffffffffffffffffffffffffffffffffffffffffffffffff1916149050919050565b611c05838361218a565b611c126000848484611dbc565b611c51576040517f08c379a0000000000000000000000000000000000000000000000000000000008152600401611c48906130a2565b60405180910390fd5b505050565b611c62848484846123a8565b6001811115611ca6576040517f08c379a0000000000000000000000000000000000000000000000000000000008152600401611c9d906132e2565b60405180910390fd5b6000829050600073ffffffffffffffffffffffffffffffffffffffff168573ffffffffffffffffffffffffffffffffffffffff161415611cee57611ce9816124ce565b611d2d565b8373ffffffffffffffffffffffffffffffffffffffff168573ffffffffffffffffffffffffffffffffffffffff1614611d2c57611d2b8582612517565b5b5b600073ffffffffffffffffffffffffffffffffffffffff168473ffffffffffffffffffffffffffffffffffffffff161415611d7057611d6b81612684565b611daf565b8473ffffffffffffffffffffffffffffffffffffffff168473ffffffffffffffffffffffffffffffffffffffff1614611dae57611dad84826127c7565b5b5b5050505050565b50505050565b6000611ddd8473ffffffffffffffffffffffffffffffffffffffff16612846565b15611f46578373ffffffffffffffffffffffffffffffffffffffff1663150b7a02611e066111e2565b8786866040518563ffffffff1660e01b8152600401611e289493929190612fd9565b602060405180830381600087803b158015611e4257600080fd5b505af1925050508015611e7357506040513d601f19601f82011682018060405250810190611e709190612b33565b60015b611ef6573d8060008114611ea3576040519150601f19603f3d011682016040523d82523d6000602084013e611ea8565b606091505b50600081511415611eee576040517f08c379a0000000000000000000000000000000000000000000000000000000008152600401611ee5906130a2565b60405180910390fd5b805181602001fd5b63150b7a0260e01b7bffffffffffffffffffffffffffffffffffffffffffffffffffffffff1916817bffffffffffffffffffffffffffffffffffffffffffffffffffffffff191614915050611f4b565b600190505b949350505050565b600080600090507a184f03e93ff9f4daa797ed6e38ed64bf6a1f0100000000000000008310611fd7577a184f03e93ff9f4daa797ed6e38ed64bf6a1f0100000000000000008381611fcd577f4e487b7100000000000000000000000000000000000000000000000000000000600052601260045260246000fd5b0492506040810190505b6d04ee2d6d415b85acef8100000000831061203a576d04ee2d6d415b85acef81000000008381612030577f4e487b7100000000000000000000000000000000000000000000000000000000600052601260045260246000fd5b0492506020810190505b662386f26fc10000831061208f57662386f26fc100008381612085577f4e487b7100000000000000000000000000000000000000000000000000000000600052601260045260246000fd5b0492506010810190505b6305f5e10083106120de576305f5e10083816120d4577f4e487b7100000000000000000000000000000000000000000000000000000000600052601260045260246000fd5b0492506008810190505b612710831061212957612710838161211f577f4e487b7100000000000000000000000000000000000000000000000000000000600052601260045260246000fd5b0492506004810190505b606483106121725760648381612168577f4e487b7100000000000000000000000000000000000000000000000000000000600052601260045260246000fd5b0492506002810190505b600a8310612181576001810190505b80915050919050565b600073ffffffffffffffffffffffffffffffffffffffff168273ffffffffffffffffffffffffffffffffffffffff1614156121fa576040517f08c379a00000000000000000000000000000000000000000000000000000000081526004016121f1906131a2565b60405180910390fd5b6122038161199a565b15612243576040517f08c379a000000000000000000000000000000000000000000000000000000000815260040161223a90613102565b60405180910390fd5b612251600083836001611c56565b61225a8161199a565b1561229a576040517f08c379a000000000000000000000000000000000000000000000000000000000815260040161229190613102565b60405180910390fd5b6001600360008473ffffffffffffffffffffffffffffffffffffffff1673ffffffffffffffffffffffffffffffffffffffff16815260200190815260200160002060008282540192505081905550816002600083815260200190815260200160002060006101000a81548173ffffffffffffffffffffffffffffffffffffffff021916908373ffffffffffffffffffffffffffffffffffffffff160217905550808273ffffffffffffffffffffffffffffffffffffffff16600073ffffffffffffffffffffffffffffffffffffffff167fddf252ad1be2c89b69c2b068fc378daa952ba7f163c4a11628f55a4df523b3ef60405160405180910390a46123a4600083836001611db6565b5050565b60018111156124c857600073ffffffffffffffffffffffffffffffffffffffff168473ffffffffffffffffffffffffffffffffffffffff161461243c5780600360008673ffffffffffffffffffffffffffffffffffffffff1673ffffffffffffffffffffffffffffffffffffffff16815260200190815260200160002060008282546124349190613417565b925050819055505b600073ffffffffffffffffffffffffffffffffffffffff168373ffffffffffffffffffffffffffffffffffffffff16146124c75780600360008573ffffffffffffffffffffffffffffffffffffffff1673ffffffffffffffffffffffffffffffffffffffff16815260200190815260200160002060008282546124bf91906133c1565b925050819055505b5b50505050565b6008805490506009600083815260200190815260200160002081905550600881908060018154018082558091505060019003906000526020600020016000909190919091505550565b6000600161252484610cf0565b61252e9190613417565b9050600060076000848152602001908152602001600020549050818114612613576000600660008673ffffffffffffffffffffffffffffffffffffffff1673ffffffffffffffffffffffffffffffffffffffff168152602001908152602001600020600084815260200190815260200160002054905080600660008773ffffffffffffffffffffffffffffffffffffffff1673ffffffffffffffffffffffffffffffffffffffff168152602001908152602001600020600084815260200190815260200160002081905550816007600083815260200190815260200160002081905550505b6007600084815260200190815260200160002060009055600660008573ffffffffffffffffffffffffffffffffffffffff1673ffffffffffffffffffffffffffffffffffffffff16815260200190815260200160002060008381526020019081526020016000206000905550505050565b600060016008805490506126989190613417565b90506000600960008481526020019081526020016000205490506000600883815481106126ee577f4e487b7100000000000000000000000000000000000000000000000000000000600052603260045260246000fd5b906000526020600020015490508060088381548110612736577f4e487b7100000000000000000000000000000000000000000000000000000000600052603260045260246000fd5b9060005260206000200181905550816009600083815260200190815260200160002081905550600960008581526020019081526020016000206000905560088054806127ab577f4e487b7100000000000000000000000000000000000000000000000000000000600052603160045260246000fd5b6001900381819060005260206000200160009055905550505050565b60006127d283610cf0565b905081600660008573ffffffffffffffffffffffffffffffffffffffff1673ffffffffffffffffffffffffffffffffffffffff168152602001908152602001600020600083815260200190815260200160002081905550806007600084815260200190815260200160002081905550505050565b6000808273ffffffffffffffffffffffffffffffffffffffff163b119050919050565b600061287c61287784613342565b61331d565b90508281526020810184848401111561289457600080fd5b61289f8482856134bf565b509392505050565b6000813590506128b681613b53565b92915050565b6000813590506128cb81613b6a565b92915050565b6000813590506128e081613b81565b92915050565b6000815190506128f581613b81565b92915050565b600082601f83011261290c57600080fd5b813561291c848260208601612869565b91505092915050565b60008135905061293481613b98565b92915050565b60006020828403121561294c57600080fd5b600061295a848285016128a7565b91505092915050565b6000806040838503121561297657600080fd5b6000612984858286016128a7565b9250506020612995858286016128a7565b9150509250929050565b6000806000606084860312156129b457600080fd5b60006129c2868287016128a7565b93505060206129d3868287016128a7565b92505060406129e486828701612925565b9150509250925092565b60008060008060808587031215612a0457600080fd5b6000612a12878288016128a7565b9450506020612a23878288016128a7565b9350506040612a3487828801612925565b925050606085013567ffffffffffffffff811115612a5157600080fd5b612a5d878288016128fb565b91505092959194509250565b60008060408385031215612a7c57600080fd5b6000612a8a858286016128a7565b9250506020612a9b858286016128bc565b9150509250929050565b60008060408385031215612ab857600080fd5b6000612ac6858286016128a7565b9250506020612ad785828601612925565b9150509250929050565b600060208284031215612af357600080fd5b6000612b01848285016128bc565b91505092915050565b600060208284031215612b1c57600080fd5b6000612b2a848285016128d1565b91505092915050565b600060208284031215612b4557600080fd5b6000612b53848285016128e6565b91505092915050565b600060208284031215612b6e57600080fd5b6000612b7c84828501612925565b91505092915050565b612b8e8161344b565b82525050565b612b9d8161345d565b82525050565b6000612bae82613373565b612bb88185613389565b9350612bc88185602086016134ce565b612bd1816135f1565b840191505092915050565b6000612be78261337e565b612bf181856133a5565b9350612c018185602086016134ce565b612c0a816135f1565b840191505092915050565b6000612c208261337e565b612c2a81856133b6565b9350612c3a8185602086016134ce565b80840191505092915050565b6000612c53602d836133a5565b9150612c5e82613602565b604082019050919050565b6000612c76602b836133a5565b9150612c8182613651565b604082019050919050565b6000612c996032836133a5565b9150612ca4826136a0565b604082019050919050565b6000612cbc6026836133a5565b9150612cc7826136ef565b604082019050919050565b6000612cdf6025836133a5565b9150612cea8261373e565b604082019050919050565b6000612d02601c836133a5565b9150612d0d8261378d565b602082019050919050565b6000612d256014836133a5565b9150612d30826137b6565b602082019050919050565b6000612d486024836133a5565b9150612d53826137df565b604082019050919050565b6000612d6b6019836133a5565b9150612d768261382e565b602082019050919050565b6000612d8e6029836133a5565b9150612d9982613857565b604082019050919050565b6000612db16020836133a5565b9150612dbc826138a6565b602082019050919050565b6000612dd46005836133b6565b9150612ddf826138cf565b600582019050919050565b6000612df76020836133a5565b9150612e02826138f8565b602082019050919050565b6000612e1a602f836133a5565b9150612e2582613921565b604082019050919050565b6000612e3d6019836133a5565b9150612e4882613970565b602082019050919050565b6000612e606018836133a5565b9150612e6b82613999565b602082019050919050565b6000612e836021836133a5565b9150612e8e826139c2565b604082019050919050565b6000612ea66019836133a5565b9150612eb182613a11565b602082019050919050565b6000612ec960008361339a565b9150612ed482613a3a565b600082019050919050565b6000612eec603d836133a5565b9150612ef782613a3d565b604082019050919050565b6000612f0f602c836133a5565b9150612f1a82613a8c565b604082019050919050565b6000612f32601e836133a5565b9150612f3d82613adb565b602082019050919050565b6000612f556035836133a5565b9150612f6082613b04565b604082019050919050565b612f74816134b5565b82525050565b6000612f868285612c15565b9150612f928284612c15565b9150612f9d82612dc7565b91508190509392505050565b6000612fb482612ebc565b9150819050919050565b6000602082019050612fd36000830184612b85565b92915050565b6000608082019050612fee6000830187612b85565b612ffb6020830186612b85565b6130086040830185612f6b565b818103606083015261301a8184612ba3565b905095945050505050565b600060208201905061303a6000830184612b94565b92915050565b6000602082019050818103600083015261305a8184612bdc565b905092915050565b6000602082019050818103600083015261307b81612c46565b9050919050565b6000602082019050818103600083015261309b81612c69565b9050919050565b600060208201905081810360008301526130bb81612c8c565b9050919050565b600060208201905081810360008301526130db81612caf565b9050919050565b600060208201905081810360008301526130fb81612cd2565b9050919050565b6000602082019050818103600083015261311b81612cf5565b9050919050565b6000602082019050818103600083015261313b81612d18565b9050919050565b6000602082019050818103600083015261315b81612d3b565b9050919050565b6000602082019050818103600083015261317b81612d5e565b9050919050565b6000602082019050818103600083015261319b81612d81565b9050919050565b600060208201905081810360008301526131bb81612da4565b9050919050565b600060208201905081810360008301526131db81612dea565b9050919050565b600060208201905081810360008301526131fb81612e0d565b9050919050565b6000602082019050818103600083015261321b81612e30565b9050919050565b6000602082019050818103600083015261323b81612e53565b9050919050565b6000602082019050818103600083015261325b81612e76565b9050919050565b6000602082019050818103600083015261327b81612e99565b9050919050565b6000602082019050818103600083015261329b81612edf565b9050919050565b600060208201905081810360008301526132bb81612f02565b9050919050565b600060208201905081810360008301526132db81612f25565b9050919050565b600060208201905081810360008301526132fb81612f48565b9050919050565b60006020820190506133176000830184612f6b565b92915050565b6000613327613338565b90506133338282613533565b919050565b6000604051905090565b600067ffffffffffffffff82111561335d5761335c6135c2565b5b613366826135f1565b9050602081019050919050565b600081519050919050565b600081519050919050565b600082825260208201905092915050565b600081905092915050565b600082825260208201905092915050565b600081905092915050565b60006133cc826134b5565b91506133d7836134b5565b9250827fffffffffffffffffffffffffffffffffffffffffffffffffffffffffffffffff0382111561340c5761340b613564565b5b828201905092915050565b6000613422826134b5565b915061342d836134b5565b9250828210156134405761343f613564565b5b828203905092915050565b600061345682613495565b9050919050565b60008115159050919050565b60007fffffffff0000000000000000000000000000000000000000000000000000000082169050919050565b600073ffffffffffffffffffffffffffffffffffffffff82169050919050565b6000819050919050565b82818337600083830152505050565b60005b838110156134ec5780820151818401526020810190506134d1565b838111156134fb576000848401525b50505050565b6000600282049050600182168061351957607f821691505b6020821081141561352d5761352c613593565b5b50919050565b61353c826135f1565b810181811067ffffffffffffffff8211171561355b5761355a6135c2565b5b80604052505050565b7f4e487b7100000000000000000000000000000000000000000000000000000000600052601160045260246000fd5b7f4e487b7100000000000000000000000000000000000000000000000000000000600052602260045260246000fd5b7f4e487b7100000000000000000000000000000000000000000000000000000000600052604160045260246000fd5b6000601f19601f8301169050919050565b7f4552433732313a2063616c6c6572206973206e6f7420746f6b656e206f776e6560008201527f72206f7220617070726f76656400000000000000000000000000000000000000602082015250565b7f455243373231456e756d657261626c653a206f776e657220696e646578206f7560008201527f74206f6620626f756e6473000000000000000000000000000000000000000000602082015250565b7f4552433732313a207472616e7366657220746f206e6f6e20455243373231526560008201527f63656976657220696d706c656d656e7465720000000000000000000000000000602082015250565b7f4f776e61626c653a206e6577206f776e657220697320746865207a65726f206160008201527f6464726573730000000000000000000000000000000000000000000000000000602082015250565b7f4552433732313a207472616e736665722066726f6d20696e636f72726563742060008201527f6f776e6572000000000000000000000000000000000000000000000000000000602082015250565b7f4552433732313a20746f6b656e20616c7265616479206d696e74656400000000600082015250565b7f4661696c656420746f2073656e64204574686572000000000000000000000000600082015250565b7f4552433732313a207472616e7366657220746f20746865207a65726f2061646460008201527f7265737300000000000000000000000000000000000000000000000000000000602082015250565b7f4552433732313a20617070726f766520746f2063616c6c657200000000000000600082015250565b7f4552433732313a2061646472657373207a65726f206973206e6f74206120766160008201527f6c6964206f776e65720000000000000000000000000000000000000000000000602082015250565b7f4552433732313a206d696e7420746f20746865207a65726f2061646472657373600082015250565b7f2e6a736f6e000000000000000000000000000000000000000000000000000000600082015250565b7f4f776e61626c653a2063616c6c6572206973206e6f7420746865206f776e6572600082015250565b7f4552433732314d657461646174613a2055524920717565727920666f72206e6f60008201527f6e6578697374656e7420746f6b656e0000000000000000000000000000000000602082015250565b7f436f6e74726163742063757272656e746c792070617573656400000000000000600082015250565b7f4552433732313a20696e76616c696420746f6b656e2049440000000000000000600082015250565b7f4552433732313a20617070726f76616c20746f2063757272656e74206f776e6560008201527f7200000000000000000000000000000000000000000000000000000000000000602082015250565b7f45746865722073656e74206973206e6f7420636f727265637400000000000000600082015250565b50565b7f4552433732313a20617070726f76652063616c6c6572206973206e6f7420746f60008201527f6b656e206f776e6572206f7220617070726f76656420666f7220616c6c000000602082015250565b7f455243373231456e756d657261626c653a20676c6f62616c20696e646578206f60008201527f7574206f6620626f756e64730000000000000000000000000000000000000000602082015250565b7f457863656564206d6178696d756d204c573350756e6b7320737570706c790000600082015250565b7f455243373231456e756d657261626c653a20636f6e736563757469766520747260008201527f616e7366657273206e6f7420737570706f727465640000000000000000000000602082015250565b613b5c8161344b565b8114613b6757600080fd5b50565b613b738161345d565b8114613b7e57600080fd5b50565b613b8a81613469565b8114613b9557600080fd5b50565b613ba1816134b5565b8114613bac57600080fd5b5056fea2646970667358221220755e358118fb96095e9e85dae316126219de577a9686406eaeeeb018d4d72f1664736f6c63430008040033",
  "linkReferences": {},
  "deployedLinkReferences": {}
}