{
  "_format": "hh-sol-artifact-1",
  "contractName": "Erc21aBatchMinting",
  "sourceName": "contracts/Erc721a_Deploy.sol",
  "abi": [
    {
      "inputs": [
        {
          "internalType": "uint256",
          "name": "_maxBatchSize",
          "type": "uint256"
        },
        {
          "internalType": "string",
          "name": "uri",
          "type": "string"
        }
      ],
      "stateMutability": "nonpayable",
      "type": "constructor"
    },
    {
      "anonymous": false,
      "inputs": [
        {
          "indexed": true,
          "internalType": "address",
          "name": "owner",
          "type": "address"
        },
        {
          "indexed": true,
          "internalType": "address",
          "name": "approved",
          "type": "address"
        },
        {
          "indexed": true,
          "internalType": "uint256",
          "name": "tokenId",
          "type": "uint256"
        }
      ],
      "name": "Approval",
      "type": "event"
    },
    {
      "anonymous": false,
      "inputs": [
        {
          "indexed": true,
          "internalType": "address",
          "name": "owner",
          "type": "address"
        },
        {
          "indexed": true,
          "internalType": "address",
          "name": "operator",
          "type": "address"
        },
        {
          "indexed": false,
          "internalType": "bool",
          "name": "approved",
          "type": "bool"
        }
      ],
      "name": "ApprovalForAll",
      "type": "event"
    },
    {
      "anonymous": false,
      "inputs": [
        {
          "indexed": true,
          "internalType": "bytes32",
          "name": "role",
          "type": "bytes32"
        },
        {
          "indexed": true,
          "internalType": "bytes32",
          "name": "previousAdminRole",
          "type": "bytes32"
        },
        {
          "indexed": true,
          "internalType": "bytes32",
          "name": "newAdminRole",
          "type": "bytes32"
        }
      ],
      "name": "RoleAdminChanged",
      "type": "event"
    },
    {
      "anonymous": false,
      "inputs": [
        {
          "indexed": true,
          "internalType": "bytes32",
          "name": "role",
          "type": "bytes32"
        },
        {
          "indexed": true,
          "internalType": "address",
          "name": "account",
          "type": "address"
        },
        {
          "indexed": true,
          "internalType": "address",
          "name": "sender",
          "type": "address"
        }
      ],
      "name": "RoleGranted",
      "type": "event"
    },
    {
      "anonymous": false,
      "inputs": [
        {
          "indexed": true,
          "internalType": "bytes32",
          "name": "role",
          "type": "bytes32"
        },
        {
          "indexed": true,
          "internalType": "address",
          "name": "account",
          "type": "address"
        },
        {
          "indexed": true,
          "internalType": "address",
          "name": "sender",
          "type": "address"
        }
      ],
      "name": "RoleRevoked",
      "type": "event"
    },
    {
      "anonymous": false,
      "inputs": [
        {
          "indexed": true,
          "internalType": "address",
          "name": "from",
          "type": "address"
        },
        {
          "indexed": true,
          "internalType": "address",
          "name": "to",
          "type": "address"
        },
        {
          "indexed": true,
          "internalType": "uint256",
          "name": "tokenId",
          "type": "uint256"
        }
      ],
      "name": "Transfer",
      "type": "event"
    },
    {
      "inputs": [],
      "name": "DEFAULT_ADMIN_ROLE",
      "outputs": [
        {
          "internalType": "bytes32",
          "name": "",
          "type": "bytes32"
        }
      ],
      "stateMutability": "view",
      "type": "function"
    },
    {
      "inputs": [],
      "name": "MINTER_ROLE",
      "outputs": [
        {
          "internalType": "bytes32",
          "name": "",
          "type": "bytes32"
        }
      ],
      "stateMutability": "view",
      "type": "function"
    },
    {
      "inputs": [
        {
          "internalType": "address",
          "name": "to",
          "type": "address"
        },
        {
          "internalType": "uint256",
          "name": "tokenId",
          "type": "uint256"
        }
      ],
      "name": "approve",
      "outputs": [],
      "stateMutability": "nonpayable",
      "type": "function"
    },
    {
      "inputs": [
        {
          "internalType": "address",
          "name": "owner",
          "type": "address"
        }
      ],
      "name": "balanceOf",
      "outputs": [
        {
          "internalType": "uint256",
          "name": "",
          "type": "uint256"
        }
      ],
      "stateMutability": "view",
      "type": "function"
    },
    {
      "inputs": [
        {
          "internalType": "address[]",
          "name": "addressTo",
          "type": "address[]"
        },
        {
          "internalType": "uint256[]",
          "name": "tokenIds",
          "type": "uint256[]"
        }
      ],
      "name": "batchTransferFrom",
      "outputs": [],
      "stateMutability": "nonpayable",
      "type": "function"
    },
    {
      "inputs": [
        {
          "internalType": "uint256",
          "name": "tokenId",
          "type": "uint256"
        }
      ],
      "name": "getApproved",
      "outputs": [
        {
          "internalType": "address",
          "name": "",
          "type": "address"
        }
      ],
      "stateMutability": "view",
      "type": "function"
    },
    {
      "inputs": [
        {
          "internalType": "bytes32",
          "name": "role",
          "type": "bytes32"
        }
      ],
      "name": "getRoleAdmin",
      "outputs": [
        {
          "internalType": "bytes32",
          "name": "",
          "type": "bytes32"
        }
      ],
      "stateMutability": "view",
      "type": "function"
    },
    {
      "inputs": [
        {
          "internalType": "bytes32",
          "name": "role",
          "type": "bytes32"
        },
        {
          "internalType": "address",
          "name": "account",
          "type": "address"
        }
      ],
      "name": "grantRole",
      "outputs": [],
      "stateMutability": "nonpayable",
      "type": "function"
    },
    {
      "inputs": [
        {
          "internalType": "bytes32",
          "name": "role",
          "type": "bytes32"
        },
        {
          "internalType": "address",
          "name": "account",
          "type": "address"
        }
      ],
      "name": "hasRole",
      "outputs": [
        {
          "internalType": "bool",
          "name": "",
          "type": "bool"
        }
      ],
      "stateMutability": "view",
      "type": "function"
    },
    {
      "inputs": [
        {
          "internalType": "address",
          "name": "owner",
          "type": "address"
        },
        {
          "internalType": "address",
          "name": "operator",
          "type": "address"
        }
      ],
      "name": "isApprovedForAll",
      "outputs": [
        {
          "internalType": "bool",
          "name": "",
          "type": "bool"
        }
      ],
      "stateMutability": "view",
      "type": "function"
    },
    {
      "inputs": [
        {
          "internalType": "address",
          "name": "to",
          "type": "address"
        },
        {
          "internalType": "uint256",
          "name": "quantity",
          "type": "uint256"
        }
      ],
      "name": "mint",
      "outputs": [],
      "stateMutability": "nonpayable",
      "type": "function"
    },
    {
      "inputs": [],
      "name": "name",
      "outputs": [
        {
          "internalType": "string",
          "name": "",
          "type": "string"
        }
      ],
      "stateMutability": "view",
      "type": "function"
    },
    {
      "inputs": [],
      "name": "nextOwnerToExplicitlySet",
      "outputs": [
        {
          "internalType": "uint256",
          "name": "",
          "type": "uint256"
        }
      ],
      "stateMutability": "view",
      "type": "function"
    },
    {
      "inputs": [
        {
          "internalType": "uint256",
          "name": "tokenId",
          "type": "uint256"
        }
      ],
      "name": "ownerOf",
      "outputs": [
        {
          "internalType": "address",
          "name": "",
          "type": "address"
        }
      ],
      "stateMutability": "view",
      "type": "function"
    },
    {
      "inputs": [
        {
          "internalType": "bytes32",
          "name": "role",
          "type": "bytes32"
        },
        {
          "internalType": "address",
          "name": "account",
          "type": "address"
        }
      ],
      "name": "renounceRole",
      "outputs": [],
      "stateMutability": "nonpayable",
      "type": "function"
    },
    {
      "inputs": [
        {
          "internalType": "bytes32",
          "name": "role",
          "type": "bytes32"
        },
        {
          "internalType": "address",
          "name": "account",
          "type": "address"
        }
      ],
      "name": "revokeRole",
      "outputs": [],
      "stateMutability": "nonpayable",
      "type": "function"
    },
    {
      "inputs": [
        {
          "internalType": "address",
          "name": "from",
          "type": "address"
        },
        {
          "internalType": "address",
          "name": "to",
          "type": "address"
        },
        {
          "internalType": "uint256",
          "name": "tokenId",
          "type": "uint256"
        }
      ],
      "name": "safeTransferFrom",
      "outputs": [],
      "stateMutability": "nonpayable",
      "type": "function"
    },
    {
      "inputs": [
        {
          "internalType": "address",
          "name": "from",
          "type": "address"
        },
        {
          "internalType": "address",
          "name": "to",
          "type": "address"
        },
        {
          "internalType": "uint256",
          "name": "tokenId",
          "type": "uint256"
        },
        {
          "internalType": "bytes",
          "name": "_data",
          "type": "bytes"
        }
      ],
      "name": "safeTransferFrom",
      "outputs": [],
      "stateMutability": "nonpayable",
      "type": "function"
    },
    {
      "inputs": [
        {
          "internalType": "address",
          "name": "operator",
          "type": "address"
        },
        {
          "internalType": "bool",
          "name": "approved",
          "type": "bool"
        }
      ],
      "name": "setApprovalForAll",
      "outputs": [],
      "stateMutability": "nonpayable",
      "type": "function"
    },
    {
      "inputs": [
        {
          "internalType": "bytes4",
          "name": "interfaceId",
          "type": "bytes4"
        }
      ],
      "name": "supportsInterface",
      "outputs": [
        {
          "internalType": "bool",
          "name": "",
          "type": "bool"
        }
      ],
      "stateMutability": "view",
      "type": "function"
    },
    {
      "inputs": [],
      "name": "symbol",
      "outputs": [
        {
          "internalType": "string",
          "name": "",
          "type": "string"
        }
      ],
      "stateMutability": "view",
      "type": "function"
    },
    {
      "inputs": [
        {
          "internalType": "uint256",
          "name": "index",
          "type": "uint256"
        }
      ],
      "name": "tokenByIndex",
      "outputs": [
        {
          "internalType": "uint256",
          "name": "",
          "type": "uint256"
        }
      ],
      "stateMutability": "view",
      "type": "function"
    },
    {
      "inputs": [
        {
          "internalType": "address",
          "name": "owner",
          "type": "address"
        },
        {
          "internalType": "uint256",
          "name": "index",
          "type": "uint256"
        }
      ],
      "name": "tokenOfOwnerByIndex",
      "outputs": [
        {
          "internalType": "uint256",
          "name": "",
          "type": "uint256"
        }
      ],
      "stateMutability": "view",
      "type": "function"
    },
    {
      "inputs": [
        {
          "internalType": "uint256",
          "name": "tokenId",
          "type": "uint256"
        }
      ],
      "name": "tokenURI",
      "outputs": [
        {
          "internalType": "string",
          "name": "",
          "type": "string"
        }
      ],
      "stateMutability": "view",
      "type": "function"
    },
    {
      "inputs": [],
      "name": "totalSupply",
      "outputs": [
        {
          "internalType": "uint256",
          "name": "",
          "type": "uint256"
        }
      ],
      "stateMutability": "view",
      "type": "function"
    },
    {
      "inputs": [
        {
          "internalType": "address",
          "name": "from",
          "type": "address"
        },
        {
          "internalType": "address",
          "name": "to",
          "type": "address"
        },
        {
          "internalType": "uint256",
          "name": "tokenId",
          "type": "uint256"
        }
      ],
      "name": "transferFrom",
      "outputs": [],
      "stateMutability": "nonpayable",
      "type": "function"
    },
    {
      "inputs": [
        {
          "internalType": "string",
          "name": "uri",
          "type": "string"
        }
      ],
      "name": "updateBaseUri",
      "outputs": [],
      "stateMutability": "nonpayable",
      "type": "function"
    }
  ],
  "bytecode": "0x60a06040526000805560006007553480156200001a57600080fd5b5060405162004e5838038062004e58833981810160405281019062000040919062000436565b6040518060400160405280600d81526020017f4572633732314120546f6b656e000000000000000000000000000000000000008152506040518060400160405280600381526020017f45415400000000000000000000000000000000000000000000000000000000008152508360008111620000f3576040517f08c379a0000000000000000000000000000000000000000000000000000000008152600401620000ea90620004b7565b60405180910390fd5b82600190805190602001906200010b929190620002fd565b50816002908051906020019062000124929190620002fd565b508060808181525050505050806009908051906020019062000148929190620002fd565b506200015e6000801b336200019860201b60201c565b620001907f9f2df0fed2c77648de5860a4cc508cd0818c85b8b8a1ab4ceeef8d981c8956a6336200019860201b60201c565b5050620006cd565b620001aa82826200028a60201b60201c565b620002865760016008600084815260200190815260200160002060000160008373ffffffffffffffffffffffffffffffffffffffff1673ffffffffffffffffffffffffffffffffffffffff16815260200190815260200160002060006101000a81548160ff0219169083151502179055506200022b620002f560201b60201c565b73ffffffffffffffffffffffffffffffffffffffff168173ffffffffffffffffffffffffffffffffffffffff16837f2f8788117e7eff1d82e926ec794901d17c78024a50270940304540a733656f0d60405160405180910390a45b5050565b60006008600084815260200190815260200160002060000160008373ffffffffffffffffffffffffffffffffffffffff1673ffffffffffffffffffffffffffffffffffffffff16815260200190815260200160002060009054906101000a900460ff16905092915050565b600033905090565b8280546200030b9062000589565b90600052602060002090601f0160209004810192826200032f57600085556200037b565b82601f106200034a57805160ff19168380011785556200037b565b828001600101855582156200037b579182015b828111156200037a5782518255916020019190600101906200035d565b5b5090506200038a91906200038e565b5090565b5b80821115620003a95760008160009055506001016200038f565b5090565b6000620003c4620003be8462000502565b620004d9565b905082815260208101848484011115620003dd57600080fd5b620003ea84828562000553565b509392505050565b600082601f8301126200040457600080fd5b815162000416848260208601620003ad565b91505092915050565b6000815190506200043081620006b3565b92915050565b600080604083850312156200044a57600080fd5b60006200045a858286016200041f565b925050602083015167ffffffffffffffff8111156200047857600080fd5b6200048685828601620003f2565b9150509250929050565b60006200049f60278362000538565b9150620004ac8262000664565b604082019050919050565b60006020820190508181036000830152620004d28162000490565b9050919050565b6000620004e5620004f8565b9050620004f38282620005bf565b919050565b6000604051905090565b600067ffffffffffffffff82111562000520576200051f62000624565b5b6200052b8262000653565b9050602081019050919050565b600082825260208201905092915050565b6000819050919050565b60005b838110156200057357808201518184015260208101905062000556565b8381111562000583576000848401525b50505050565b60006002820490506001821680620005a257607f821691505b60208210811415620005b957620005b8620005f5565b5b50919050565b620005ca8262000653565b810181811067ffffffffffffffff82111715620005ec57620005eb62000624565b5b80604052505050565b7f4e487b7100000000000000000000000000000000000000000000000000000000600052602260045260246000fd5b7f4e487b7100000000000000000000000000000000000000000000000000000000600052604160045260246000fd5b6000601f19601f8301169050919050565b7f455243373231413a206d61782062617463682073697a65206d7573742062652060008201527f6e6f6e7a65726f00000000000000000000000000000000000000000000000000602082015250565b620006be8162000549565b8114620006ca57600080fd5b50565b608051614761620006f760003960008181611b2e01528181611b5701526122c601526147616000f3fe608060405234801561001057600080fd5b50600436106101a95760003560e01c806342842e0e116100f9578063a22cb46511610097578063d539139311610071578063d5391393146104ee578063d547741f1461050c578063d7224ba014610528578063e985e9c514610546576101a9565b8063a22cb46514610486578063b88d4fde146104a2578063c87b56dd146104be576101a9565b806370a08231116100d357806370a08231146103ea57806391d148541461041a57806395d89b411461044a578063a217fddf14610468576101a9565b806342842e0e1461036e5780634f6ccce71461038a5780636352211e146103ba576101a9565b806323b872dd116101665780632f745c59116101405780632f745c59146102ea57806336568abe1461031a57806339f7e37f1461033657806340c10f1914610352576101a9565b806323b872dd14610282578063248a9ca31461029e5780632f2ff15d146102ce576101a9565b806301ffc9a7146101ae57806306fdde03146101de578063081812fc146101fc578063095ea7b31461022c57806314d387251461024857806318160ddd14610264575b600080fd5b6101c860048036038101906101c3919061329e565b610576565b6040516101d59190613851565b60405180910390f35b6101e6610588565b6040516101f39190613887565b60405180910390f35b61021660048036038101906102119190613331565b61061a565b60405161022391906137ea565b60405180910390f35b61024660048036038101906102419190613191565b61069f565b005b610262600480360381019061025d91906131cd565b6107b8565b005b61026c6108b9565b6040516102799190613b49565b60405180910390f35b61029c6004803603810190610297919061308b565b6108c2565b005b6102b860048036038101906102b39190613239565b6108d2565b6040516102c5919061386c565b60405180910390f35b6102e860048036038101906102e39190613262565b6108f2565b005b61030460048036038101906102ff9190613191565b610913565b6040516103119190613b49565b60405180910390f35b610334600480360381019061032f9190613262565b610b11565b005b610350600480360381019061034b91906132f0565b610b94565b005b61036c60048036038101906103679190613191565b610bd9565b005b6103886004803603810190610383919061308b565b610c12565b005b6103a4600480360381019061039f9190613331565b610c32565b6040516103b19190613b49565b60405180910390f35b6103d460048036038101906103cf9190613331565b610c85565b6040516103e191906137ea565b60405180910390f35b61040460048036038101906103ff9190613026565b610c9b565b6040516104119190613b49565b60405180910390f35b610434600480360381019061042f9190613262565b610d84565b6040516104419190613851565b60405180910390f35b610452610def565b60405161045f9190613887565b60405180910390f35b610470610e81565b60405161047d919061386c565b60405180910390f35b6104a0600480360381019061049b9190613155565b610e88565b005b6104bc60048036038101906104b791906130da565b611009565b005b6104d860048036038101906104d39190613331565b611065565b6040516104e59190613887565b60405180910390f35b6104f661110c565b604051610503919061386c565b60405180910390f35b61052660048036038101906105219190613262565b611130565b005b610530611151565b60405161053d9190613b49565b60405180910390f35b610560600480360381019061055b919061304f565b611157565b60405161056d9190613851565b60405180910390f35b6000610581826111eb565b9050919050565b60606001805461059790613eea565b80601f01602080910402602001604051908101604052809291908181526020018280546105c390613eea565b80156106105780601f106105e557610100808354040283529160200191610610565b820191906000526020600020905b8154815290600101906020018083116105f357829003601f168201915b5050505050905090565b600061062582611265565b610664576040517f08c379a000000000000000000000000000000000000000000000000000000000815260040161065b90613ae9565b60405180910390fd5b6005600083815260200190815260200160002060009054906101000a900473ffffffffffffffffffffffffffffffffffffffff169050919050565b60006106aa82610c85565b90508073ffffffffffffffffffffffffffffffffffffffff168373ffffffffffffffffffffffffffffffffffffffff16141561071b576040517f08c379a000000000000000000000000000000000000000000000000000000000815260040161071290613a29565b60405180910390fd5b8073ffffffffffffffffffffffffffffffffffffffff1661073a611272565b73ffffffffffffffffffffffffffffffffffffffff161480610769575061076881610763611272565b611157565b5b6107a8576040517f08c379a000000000000000000000000000000000000000000000000000000000815260040161079f90613949565b60405180910390fd5b6107b383838361127a565b505050565b80518251146107fc576040517f08c379a00000000000000000000000000000000000000000000000000000000081526004016107f3906139a9565b60405180910390fd5b60005b82518110156108b4576108a333848381518110610845577f4e487b7100000000000000000000000000000000000000000000000000000000600052603260045260246000fd5b6020026020010151848481518110610886577f4e487b7100000000000000000000000000000000000000000000000000000000600052603260045260246000fd5b602002602001015160405180602001604052806000815250611009565b806108ad90613f4d565b90506107ff565b505050565b60008054905090565b6108cd83838361132c565b505050565b600060086000838152602001908152602001600020600101549050919050565b6108fb826108d2565b610904816118e5565b61090e83836118f9565b505050565b600061091e83610c9b565b821061095f576040517f08c379a0000000000000000000000000000000000000000000000000000000008152600401610956906138a9565b60405180910390fd5b60006109696108b9565b905060008060005b83811015610acf576000600360008381526020019081526020016000206040518060400160405290816000820160009054906101000a900473ffffffffffffffffffffffffffffffffffffffff1673ffffffffffffffffffffffffffffffffffffffff1673ffffffffffffffffffffffffffffffffffffffff1681526020016000820160149054906101000a900467ffffffffffffffff1667ffffffffffffffff1667ffffffffffffffff16815250509050600073ffffffffffffffffffffffffffffffffffffffff16816000015173ffffffffffffffffffffffffffffffffffffffff1614610a6357806000015192505b8773ffffffffffffffffffffffffffffffffffffffff168373ffffffffffffffffffffffffffffffffffffffff161415610abb5786841415610aac578195505050505050610b0b565b8380610ab790613f4d565b9450505b508080610ac790613f4d565b915050610971565b506040517f08c379a0000000000000000000000000000000000000000000000000000000008152600401610b0290613aa9565b60405180910390fd5b92915050565b610b19611272565b73ffffffffffffffffffffffffffffffffffffffff168173ffffffffffffffffffffffffffffffffffffffff1614610b86576040517f08c379a0000000000000000000000000000000000000000000000000000000008152600401610b7d90613b29565b60405180910390fd5b610b9082826119da565b5050565b7f9f2df0fed2c77648de5860a4cc508cd0818c85b8b8a1ab4ceeef8d981c8956a6610bbe816118e5565b8160099080519060200190610bd4929190612ccf565b505050565b7f9f2df0fed2c77648de5860a4cc508cd0818c85b8b8a1ab4ceeef8d981c8956a6610c03816118e5565b610c0d8383611abc565b505050565b610c2d83838360405180602001604052806000815250611009565b505050565b6000610c3c6108b9565b8210610c7d576040517f08c379a0000000000000000000000000000000000000000000000000000000008152600401610c7490613909565b60405180910390fd5b819050919050565b6000610c9082611ada565b600001519050919050565b60008073ffffffffffffffffffffffffffffffffffffffff168273ffffffffffffffffffffffffffffffffffffffff161415610d0c576040517f08c379a0000000000000000000000000000000000000000000000000000000008152600401610d0390613969565b60405180910390fd5b600460008373ffffffffffffffffffffffffffffffffffffffff1673ffffffffffffffffffffffffffffffffffffffff16815260200190815260200160002060000160009054906101000a90046fffffffffffffffffffffffffffffffff166fffffffffffffffffffffffffffffffff169050919050565b60006008600084815260200190815260200160002060000160008373ffffffffffffffffffffffffffffffffffffffff1673ffffffffffffffffffffffffffffffffffffffff16815260200190815260200160002060009054906101000a900460ff16905092915050565b606060028054610dfe90613eea565b80601f0160208091040260200160405190810160405280929190818152602001828054610e2a90613eea565b8015610e775780601f10610e4c57610100808354040283529160200191610e77565b820191906000526020600020905b815481529060010190602001808311610e5a57829003601f168201915b5050505050905090565b6000801b81565b610e90611272565b73ffffffffffffffffffffffffffffffffffffffff168273ffffffffffffffffffffffffffffffffffffffff161415610efe576040517f08c379a0000000000000000000000000000000000000000000000000000000008152600401610ef5906139e9565b60405180910390fd5b8060066000610f0b611272565b73ffffffffffffffffffffffffffffffffffffffff1673ffffffffffffffffffffffffffffffffffffffff16815260200190815260200160002060008473ffffffffffffffffffffffffffffffffffffffff1673ffffffffffffffffffffffffffffffffffffffff16815260200190815260200160002060006101000a81548160ff0219169083151502179055508173ffffffffffffffffffffffffffffffffffffffff16610fb8611272565b73ffffffffffffffffffffffffffffffffffffffff167f17307eab39ab6107e8899845ad3d59bd9653f200f220920489ca2b5937696c3183604051610ffd9190613851565b60405180910390a35050565b61101484848461132c565b61102084848484611cdd565b61105f576040517f08c379a000000000000000000000000000000000000000000000000000000000815260040161105690613a49565b60405180910390fd5b50505050565b606061107082611265565b6110af576040517f08c379a00000000000000000000000000000000000000000000000000000000081526004016110a6906139c9565b60405180910390fd5b60006110b9611e74565b905060008151116110d95760405180602001604052806000815250611104565b806110e384611f06565b6040516020016110f4929190613781565b6040516020818303038152906040525b915050919050565b7f9f2df0fed2c77648de5860a4cc508cd0818c85b8b8a1ab4ceeef8d981c8956a681565b611139826108d2565b611142816118e5565b61114c83836119da565b505050565b60075481565b6000600660008473ffffffffffffffffffffffffffffffffffffffff1673ffffffffffffffffffffffffffffffffffffffff16815260200190815260200160002060008373ffffffffffffffffffffffffffffffffffffffff1673ffffffffffffffffffffffffffffffffffffffff16815260200190815260200160002060009054906101000a900460ff16905092915050565b60007f7965db0b000000000000000000000000000000000000000000000000000000007bffffffffffffffffffffffffffffffffffffffffffffffffffffffff1916827bffffffffffffffffffffffffffffffffffffffffffffffffffffffff1916148061125e575061125d8261202a565b5b9050919050565b6000805482109050919050565b600033905090565b826005600084815260200190815260200160002060006101000a81548173ffffffffffffffffffffffffffffffffffffffff021916908373ffffffffffffffffffffffffffffffffffffffff160217905550818373ffffffffffffffffffffffffffffffffffffffff168273ffffffffffffffffffffffffffffffffffffffff167f8c5be1e5ebec7d5bd14f71427d1e84f3dd0314c0f7b2291e5b200ac8c7c3b92560405160405180910390a4505050565b600061133782611ada565b90506000816000015173ffffffffffffffffffffffffffffffffffffffff1661135e611272565b73ffffffffffffffffffffffffffffffffffffffff1614806113ba5750611383611272565b73ffffffffffffffffffffffffffffffffffffffff166113a28461061a565b73ffffffffffffffffffffffffffffffffffffffff16145b806113d657506113d582600001516113d0611272565b611157565b5b905080611418576040517f08c379a000000000000000000000000000000000000000000000000000000000815260040161140f90613a09565b60405180910390fd5b8473ffffffffffffffffffffffffffffffffffffffff16826000015173ffffffffffffffffffffffffffffffffffffffff161461148a576040517f08c379a000000000000000000000000000000000000000000000000000000000815260040161148190613989565b60405180910390fd5b600073ffffffffffffffffffffffffffffffffffffffff168473ffffffffffffffffffffffffffffffffffffffff1614156114fa576040517f08c379a00000000000000000000000000000000000000000000000000000000081526004016114f190613929565b60405180910390fd5b6115078585856001612174565b611517600084846000015161127a565b6001600460008773ffffffffffffffffffffffffffffffffffffffff1673ffffffffffffffffffffffffffffffffffffffff16815260200190815260200160002060000160008282829054906101000a90046fffffffffffffffffffffffffffffffff166115859190613d7c565b92506101000a8154816fffffffffffffffffffffffffffffffff02191690836fffffffffffffffffffffffffffffffff1602179055506001600460008673ffffffffffffffffffffffffffffffffffffffff1673ffffffffffffffffffffffffffffffffffffffff16815260200190815260200160002060000160008282829054906101000a90046fffffffffffffffffffffffffffffffff166116299190613c86565b92506101000a8154816fffffffffffffffffffffffffffffffff02191690836fffffffffffffffffffffffffffffffff16021790555060405180604001604052808573ffffffffffffffffffffffffffffffffffffffff1681526020014267ffffffffffffffff168152506003600085815260200190815260200160002060008201518160000160006101000a81548173ffffffffffffffffffffffffffffffffffffffff021916908373ffffffffffffffffffffffffffffffffffffffff16021790555060208201518160000160146101000a81548167ffffffffffffffff021916908367ffffffffffffffff160217905550905050600060018461172f9190613ccc565b9050600073ffffffffffffffffffffffffffffffffffffffff166003600083815260200190815260200160002060000160009054906101000a900473ffffffffffffffffffffffffffffffffffffffff1673ffffffffffffffffffffffffffffffffffffffff161415611875576117a581611265565b15611874576040518060400160405280846000015173ffffffffffffffffffffffffffffffffffffffff168152602001846020015167ffffffffffffffff168152506003600083815260200190815260200160002060008201518160000160006101000a81548173ffffffffffffffffffffffffffffffffffffffff021916908373ffffffffffffffffffffffffffffffffffffffff16021790555060208201518160000160146101000a81548167ffffffffffffffff021916908367ffffffffffffffff1602179055509050505b5b838573ffffffffffffffffffffffffffffffffffffffff168773ffffffffffffffffffffffffffffffffffffffff167fddf252ad1be2c89b69c2b068fc378daa952ba7f163c4a11628f55a4df523b3ef60405160405180910390a46118dd868686600161217a565b505050505050565b6118f6816118f1611272565b612180565b50565b6119038282610d84565b6119d65760016008600084815260200190815260200160002060000160008373ffffffffffffffffffffffffffffffffffffffff1673ffffffffffffffffffffffffffffffffffffffff16815260200190815260200160002060006101000a81548160ff02191690831515021790555061197b611272565b73ffffffffffffffffffffffffffffffffffffffff168173ffffffffffffffffffffffffffffffffffffffff16837f2f8788117e7eff1d82e926ec794901d17c78024a50270940304540a733656f0d60405160405180910390a45b5050565b6119e48282610d84565b15611ab85760006008600084815260200190815260200160002060000160008373ffffffffffffffffffffffffffffffffffffffff1673ffffffffffffffffffffffffffffffffffffffff16815260200190815260200160002060006101000a81548160ff021916908315150217905550611a5d611272565b73ffffffffffffffffffffffffffffffffffffffff168173ffffffffffffffffffffffffffffffffffffffff16837ff6391f5c32d9c69d2a47ea670b442974b53935d1edc7fd64eb21e047a839171b60405160405180910390a45b5050565b611ad6828260405180602001604052806000815250612205565b5050565b611ae2612d55565b611aeb82611265565b611b2a576040517f08c379a0000000000000000000000000000000000000000000000000000000008152600401611b21906138e9565b60405180910390fd5b60007f00000000000000000000000000000000000000000000000000000000000000008310611b8e5760017f000000000000000000000000000000000000000000000000000000000000000084611b819190613db0565b611b8b9190613ccc565b90505b60008390505b818110611c9c576000600360008381526020019081526020016000206040518060400160405290816000820160009054906101000a900473ffffffffffffffffffffffffffffffffffffffff1673ffffffffffffffffffffffffffffffffffffffff1673ffffffffffffffffffffffffffffffffffffffff1681526020016000820160149054906101000a900467ffffffffffffffff1667ffffffffffffffff1667ffffffffffffffff16815250509050600073ffffffffffffffffffffffffffffffffffffffff16816000015173ffffffffffffffffffffffffffffffffffffffff1614611c8857809350505050611cd8565b508080611c9490613ec0565b915050611b94565b506040517f08c379a0000000000000000000000000000000000000000000000000000000008152600401611ccf90613ac9565b60405180910390fd5b919050565b6000611cfe8473ffffffffffffffffffffffffffffffffffffffff166126e4565b15611e67578373ffffffffffffffffffffffffffffffffffffffff1663150b7a02611d27611272565b8786866040518563ffffffff1660e01b8152600401611d499493929190613805565b602060405180830381600087803b158015611d6357600080fd5b505af1925050508015611d9457506040513d601f19601f82011682018060405250810190611d9191906132c7565b60015b611e17573d8060008114611dc4576040519150601f19603f3d011682016040523d82523d6000602084013e611dc9565b606091505b50600081511415611e0f576040517f08c379a0000000000000000000000000000000000000000000000000000000008152600401611e0690613a49565b60405180910390fd5b805181602001fd5b63150b7a0260e01b7bffffffffffffffffffffffffffffffffffffffffffffffffffffffff1916817bffffffffffffffffffffffffffffffffffffffffffffffffffffffff191614915050611e6c565b600190505b949350505050565b606060098054611e8390613eea565b80601f0160208091040260200160405190810160405280929190818152602001828054611eaf90613eea565b8015611efc5780601f10611ed157610100808354040283529160200191611efc565b820191906000526020600020905b815481529060010190602001808311611edf57829003601f168201915b5050505050905090565b606060006001611f1584612707565b01905060008167ffffffffffffffff811115611f5a577f4e487b7100000000000000000000000000000000000000000000000000000000600052604160045260246000fd5b6040519080825280601f01601f191660200182016040528015611f8c5781602001600182028036833780820191505090505b509050600082602001820190505b60011561201f578080600190039150507f3031323334353637383961626364656600000000000000000000000000000000600a86061a8153600a8581612009577f4e487b7100000000000000000000000000000000000000000000000000000000600052601260045260246000fd5b049450600085141561201a5761201f565b611f9a565b819350505050919050565b60007f80ac58cd000000000000000000000000000000000000000000000000000000007bffffffffffffffffffffffffffffffffffffffffffffffffffffffff1916827bffffffffffffffffffffffffffffffffffffffffffffffffffffffff191614806120f557507f5b5e139f000000000000000000000000000000000000000000000000000000007bffffffffffffffffffffffffffffffffffffffffffffffffffffffff1916827bffffffffffffffffffffffffffffffffffffffffffffffffffffffff1916145b8061215d57507f780e9d63000000000000000000000000000000000000000000000000000000007bffffffffffffffffffffffffffffffffffffffffffffffffffffffff1916827bffffffffffffffffffffffffffffffffffffffffffffffffffffffff1916145b8061216d575061216c8261293e565b5b9050919050565b50505050565b50505050565b61218a8282610d84565b61220157612197816129a8565b6121a58360001c60206129d5565b6040516020016121b69291906137b0565b6040516020818303038152906040526040517f08c379a00000000000000000000000000000000000000000000000000000000081526004016121f89190613887565b60405180910390fd5b5050565b600080549050600073ffffffffffffffffffffffffffffffffffffffff168473ffffffffffffffffffffffffffffffffffffffff16141561227b576040517f08c379a000000000000000000000000000000000000000000000000000000000815260040161227290613a89565b60405180910390fd5b61228481611265565b156122c4576040517f08c379a00000000000000000000000000000000000000000000000000000000081526004016122bb90613a69565b60405180910390fd5b7f0000000000000000000000000000000000000000000000000000000000000000831115612327576040517f08c379a000000000000000000000000000000000000000000000000000000000815260040161231e90613b09565b60405180910390fd5b6123346000858386612174565b6000600460008673ffffffffffffffffffffffffffffffffffffffff1673ffffffffffffffffffffffffffffffffffffffff1681526020019081526020016000206040518060400160405290816000820160009054906101000a90046fffffffffffffffffffffffffffffffff166fffffffffffffffffffffffffffffffff166fffffffffffffffffffffffffffffffff1681526020016000820160109054906101000a90046fffffffffffffffffffffffffffffffff166fffffffffffffffffffffffffffffffff166fffffffffffffffffffffffffffffffff1681525050905060405180604001604052808583600001516124319190613c86565b6fffffffffffffffffffffffffffffffff1681526020018583602001516124589190613c86565b6fffffffffffffffffffffffffffffffff16815250600460008773ffffffffffffffffffffffffffffffffffffffff1673ffffffffffffffffffffffffffffffffffffffff16815260200190815260200160002060008201518160000160006101000a8154816fffffffffffffffffffffffffffffffff02191690836fffffffffffffffffffffffffffffffff16021790555060208201518160000160106101000a8154816fffffffffffffffffffffffffffffffff02191690836fffffffffffffffffffffffffffffffff16021790555090505060405180604001604052808673ffffffffffffffffffffffffffffffffffffffff1681526020014267ffffffffffffffff168152506003600084815260200190815260200160002060008201518160000160006101000a81548173ffffffffffffffffffffffffffffffffffffffff021916908373ffffffffffffffffffffffffffffffffffffffff16021790555060208201518160000160146101000a81548167ffffffffffffffff021916908367ffffffffffffffff160217905550905050600082905060005b858110156126c757818773ffffffffffffffffffffffffffffffffffffffff16600073ffffffffffffffffffffffffffffffffffffffff167fddf252ad1be2c89b69c2b068fc378daa952ba7f163c4a11628f55a4df523b3ef60405160405180910390a46126676000888488611cdd565b6126a6576040517f08c379a000000000000000000000000000000000000000000000000000000000815260040161269d90613a49565b60405180910390fd5b81806126b190613f4d565b92505080806126bf90613f4d565b9150506125f6565b50806000819055506126dc600087858861217a565b505050505050565b6000808273ffffffffffffffffffffffffffffffffffffffff163b119050919050565b600080600090507a184f03e93ff9f4daa797ed6e38ed64bf6a1f010000000000000000831061278b577a184f03e93ff9f4daa797ed6e38ed64bf6a1f0100000000000000008381612781577f4e487b7100000000000000000000000000000000000000000000000000000000600052601260045260246000fd5b0492506040810190505b6d04ee2d6d415b85acef810000000083106127ee576d04ee2d6d415b85acef810000000083816127e4577f4e487b7100000000000000000000000000000000000000000000000000000000600052601260045260246000fd5b0492506020810190505b662386f26fc10000831061284357662386f26fc100008381612839577f4e487b7100000000000000000000000000000000000000000000000000000000600052601260045260246000fd5b0492506010810190505b6305f5e1008310612892576305f5e1008381612888577f4e487b7100000000000000000000000000000000000000000000000000000000600052601260045260246000fd5b0492506008810190505b61271083106128dd5761271083816128d3577f4e487b7100000000000000000000000000000000000000000000000000000000600052601260045260246000fd5b0492506004810190505b60648310612926576064838161291c577f4e487b7100000000000000000000000000000000000000000000000000000000600052601260045260246000fd5b0492506002810190505b600a8310612935576001810190505b80915050919050565b60007f01ffc9a7000000000000000000000000000000000000000000000000000000007bffffffffffffffffffffffffffffffffffffffffffffffffffffffff1916827bffffffffffffffffffffffffffffffffffffffffffffffffffffffff1916149050919050565b60606129ce8273ffffffffffffffffffffffffffffffffffffffff16601460ff166129d5565b9050919050565b6060600060028360026129e89190613d22565b6129f29190613ccc565b67ffffffffffffffff811115612a31577f4e487b7100000000000000000000000000000000000000000000000000000000600052604160045260246000fd5b6040519080825280601f01601f191660200182016040528015612a635781602001600182028036833780820191505090505b5090507f300000000000000000000000000000000000000000000000000000000000000081600081518110612ac1577f4e487b7100000000000000000000000000000000000000000000000000000000600052603260045260246000fd5b60200101907effffffffffffffffffffffffffffffffffffffffffffffffffffffffffffff1916908160001a9053507f780000000000000000000000000000000000000000000000000000000000000081600181518110612b4b577f4e487b7100000000000000000000000000000000000000000000000000000000600052603260045260246000fd5b60200101907effffffffffffffffffffffffffffffffffffffffffffffffffffffffffffff1916908160001a90535060006001846002612b8b9190613d22565b612b959190613ccc565b90505b6001811115612c81577f3031323334353637383961626364656600000000000000000000000000000000600f861660108110612bfd577f4e487b7100000000000000000000000000000000000000000000000000000000600052603260045260246000fd5b1a60f81b828281518110612c3a577f4e487b7100000000000000000000000000000000000000000000000000000000600052603260045260246000fd5b60200101907effffffffffffffffffffffffffffffffffffffffffffffffffffffffffffff1916908160001a905350600485901c945080612c7a90613ec0565b9050612b98565b5060008414612cc5576040517f08c379a0000000000000000000000000000000000000000000000000000000008152600401612cbc906138c9565b60405180910390fd5b8091505092915050565b828054612cdb90613eea565b90600052602060002090601f016020900481019282612cfd5760008555612d44565b82601f10612d1657805160ff1916838001178555612d44565b82800160010185558215612d44579182015b82811115612d43578251825591602001919060010190612d28565b5b509050612d519190612d8f565b5090565b6040518060400160405280600073ffffffffffffffffffffffffffffffffffffffff168152602001600067ffffffffffffffff1681525090565b5b80821115612da8576000816000905550600101612d90565b5090565b6000612dbf612dba84613b89565b613b64565b90508083825260208201905082856020860282011115612dde57600080fd5b60005b85811015612e0e5781612df48882612f00565b845260208401935060208301925050600181019050612de1565b5050509392505050565b6000612e2b612e2684613bb5565b613b64565b90508083825260208201905082856020860282011115612e4a57600080fd5b60005b85811015612e7a5781612e608882613011565b845260208401935060208301925050600181019050612e4d565b5050509392505050565b6000612e97612e9284613be1565b613b64565b905082815260208101848484011115612eaf57600080fd5b612eba848285613e7e565b509392505050565b6000612ed5612ed084613c12565b613b64565b905082815260208101848484011115612eed57600080fd5b612ef8848285613e7e565b509392505050565b600081359050612f0f816146b8565b92915050565b600082601f830112612f2657600080fd5b8135612f36848260208601612dac565b91505092915050565b600082601f830112612f5057600080fd5b8135612f60848260208601612e18565b91505092915050565b600081359050612f78816146cf565b92915050565b600081359050612f8d816146e6565b92915050565b600081359050612fa2816146fd565b92915050565b600081519050612fb7816146fd565b92915050565b600082601f830112612fce57600080fd5b8135612fde848260208601612e84565b91505092915050565b600082601f830112612ff857600080fd5b8135613008848260208601612ec2565b91505092915050565b60008135905061302081614714565b92915050565b60006020828403121561303857600080fd5b600061304684828501612f00565b91505092915050565b6000806040838503121561306257600080fd5b600061307085828601612f00565b925050602061308185828601612f00565b9150509250929050565b6000806000606084860312156130a057600080fd5b60006130ae86828701612f00565b93505060206130bf86828701612f00565b92505060406130d086828701613011565b9150509250925092565b600080600080608085870312156130f057600080fd5b60006130fe87828801612f00565b945050602061310f87828801612f00565b935050604061312087828801613011565b925050606085013567ffffffffffffffff81111561313d57600080fd5b61314987828801612fbd565b91505092959194509250565b6000806040838503121561316857600080fd5b600061317685828601612f00565b925050602061318785828601612f69565b9150509250929050565b600080604083850312156131a457600080fd5b60006131b285828601612f00565b92505060206131c385828601613011565b9150509250929050565b600080604083850312156131e057600080fd5b600083013567ffffffffffffffff8111156131fa57600080fd5b61320685828601612f15565b925050602083013567ffffffffffffffff81111561322357600080fd5b61322f85828601612f3f565b9150509250929050565b60006020828403121561324b57600080fd5b600061325984828501612f7e565b91505092915050565b6000806040838503121561327557600080fd5b600061328385828601612f7e565b925050602061329485828601612f00565b9150509250929050565b6000602082840312156132b057600080fd5b60006132be84828501612f93565b91505092915050565b6000602082840312156132d957600080fd5b60006132e784828501612fa8565b91505092915050565b60006020828403121561330257600080fd5b600082013567ffffffffffffffff81111561331c57600080fd5b61332884828501612fe7565b91505092915050565b60006020828403121561334357600080fd5b600061335184828501613011565b91505092915050565b61336381613de4565b82525050565b61337281613df6565b82525050565b61338181613e02565b82525050565b600061339282613c43565b61339c8185613c59565b93506133ac818560208601613e8d565b6133b581614023565b840191505092915050565b60006133cb82613c4e565b6133d58185613c6a565b93506133e5818560208601613e8d565b6133ee81614023565b840191505092915050565b600061340482613c4e565b61340e8185613c7b565b935061341e818560208601613e8d565b80840191505092915050565b6000613437602283613c6a565b915061344282614034565b604082019050919050565b600061345a602083613c6a565b915061346582614083565b602082019050919050565b600061347d602a83613c6a565b9150613488826140ac565b604082019050919050565b60006134a0602383613c6a565b91506134ab826140fb565b604082019050919050565b60006134c3602583613c6a565b91506134ce8261414a565b604082019050919050565b60006134e6603983613c6a565b91506134f182614199565b604082019050919050565b6000613509602b83613c6a565b9150613514826141e8565b604082019050919050565b600061352c602683613c6a565b915061353782614237565b604082019050919050565b600061354f600583613c7b565b915061355a82614286565b600582019050919050565b6000613572602283613c6a565b915061357d826142af565b604082019050919050565b6000613595602f83613c6a565b91506135a0826142fe565b604082019050919050565b60006135b8601a83613c6a565b91506135c38261434d565b602082019050919050565b60006135db603283613c6a565b91506135e682614376565b604082019050919050565b60006135fe602283613c6a565b9150613609826143c5565b604082019050919050565b6000613621603383613c6a565b915061362c82614414565b604082019050919050565b6000613644601d83613c6a565b915061364f82614463565b602082019050919050565b6000613667602183613c6a565b91506136728261448c565b604082019050919050565b600061368a601783613c7b565b9150613695826144db565b601782019050919050565b60006136ad602e83613c6a565b91506136b882614504565b604082019050919050565b60006136d0602f83613c6a565b91506136db82614553565b604082019050919050565b60006136f3602d83613c6a565b91506136fe826145a2565b604082019050919050565b6000613716602283613c6a565b9150613721826145f1565b604082019050919050565b6000613739601183613c7b565b915061374482614640565b601182019050919050565b600061375c602f83613c6a565b915061376782614669565b604082019050919050565b61377b81613e74565b82525050565b600061378d82856133f9565b915061379982846133f9565b91506137a482613542565b91508190509392505050565b60006137bb8261367d565b91506137c782856133f9565b91506137d28261372c565b91506137de82846133f9565b91508190509392505050565b60006020820190506137ff600083018461335a565b92915050565b600060808201905061381a600083018761335a565b613827602083018661335a565b6138346040830185613772565b81810360608301526138468184613387565b905095945050505050565b60006020820190506138666000830184613369565b92915050565b60006020820190506138816000830184613378565b92915050565b600060208201905081810360008301526138a181846133c0565b905092915050565b600060208201905081810360008301526138c28161342a565b9050919050565b600060208201905081810360008301526138e28161344d565b9050919050565b6000602082019050818103600083015261390281613470565b9050919050565b6000602082019050818103600083015261392281613493565b9050919050565b60006020820190508181036000830152613942816134b6565b9050919050565b60006020820190508181036000830152613962816134d9565b9050919050565b60006020820190508181036000830152613982816134fc565b9050919050565b600060208201905081810360008301526139a28161351f565b9050919050565b600060208201905081810360008301526139c281613565565b9050919050565b600060208201905081810360008301526139e281613588565b9050919050565b60006020820190508181036000830152613a02816135ab565b9050919050565b60006020820190508181036000830152613a22816135ce565b9050919050565b60006020820190508181036000830152613a42816135f1565b9050919050565b60006020820190508181036000830152613a6281613614565b9050919050565b60006020820190508181036000830152613a8281613637565b9050919050565b60006020820190508181036000830152613aa28161365a565b9050919050565b60006020820190508181036000830152613ac2816136a0565b9050919050565b60006020820190508181036000830152613ae2816136c3565b9050919050565b60006020820190508181036000830152613b02816136e6565b9050919050565b60006020820190508181036000830152613b2281613709565b9050919050565b60006020820190508181036000830152613b428161374f565b9050919050565b6000602082019050613b5e6000830184613772565b92915050565b6000613b6e613b7f565b9050613b7a8282613f1c565b919050565b6000604051905090565b600067ffffffffffffffff821115613ba457613ba3613ff4565b5b602082029050602081019050919050565b600067ffffffffffffffff821115613bd057613bcf613ff4565b5b602082029050602081019050919050565b600067ffffffffffffffff821115613bfc57613bfb613ff4565b5b613c0582614023565b9050602081019050919050565b600067ffffffffffffffff821115613c2d57613c2c613ff4565b5b613c3682614023565b9050602081019050919050565b600081519050919050565b600081519050919050565b600082825260208201905092915050565b600082825260208201905092915050565b600081905092915050565b6000613c9182613e38565b9150613c9c83613e38565b9250826fffffffffffffffffffffffffffffffff03821115613cc157613cc0613f96565b5b828201905092915050565b6000613cd782613e74565b9150613ce283613e74565b9250827fffffffffffffffffffffffffffffffffffffffffffffffffffffffffffffffff03821115613d1757613d16613f96565b5b828201905092915050565b6000613d2d82613e74565b9150613d3883613e74565b9250817fffffffffffffffffffffffffffffffffffffffffffffffffffffffffffffffff0483118215151615613d7157613d70613f96565b5b828202905092915050565b6000613d8782613e38565b9150613d9283613e38565b925082821015613da557613da4613f96565b5b828203905092915050565b6000613dbb82613e74565b9150613dc683613e74565b925082821015613dd957613dd8613f96565b5b828203905092915050565b6000613def82613e54565b9050919050565b60008115159050919050565b6000819050919050565b60007fffffffff0000000000000000000000000000000000000000000000000000000082169050919050565b60006fffffffffffffffffffffffffffffffff82169050919050565b600073ffffffffffffffffffffffffffffffffffffffff82169050919050565b6000819050919050565b82818337600083830152505050565b60005b83811015613eab578082015181840152602081019050613e90565b83811115613eba576000848401525b50505050565b6000613ecb82613e74565b91506000821415613edf57613ede613f96565b5b600182039050919050565b60006002820490506001821680613f0257607f821691505b60208210811415613f1657613f15613fc5565b5b50919050565b613f2582614023565b810181811067ffffffffffffffff82111715613f4457613f43613ff4565b5b80604052505050565b6000613f5882613e74565b91507fffffffffffffffffffffffffffffffffffffffffffffffffffffffffffffffff821415613f8b57613f8a613f96565b5b600182019050919050565b7f4e487b7100000000000000000000000000000000000000000000000000000000600052601160045260246000fd5b7f4e487b7100000000000000000000000000000000000000000000000000000000600052602260045260246000fd5b7f4e487b7100000000000000000000000000000000000000000000000000000000600052604160045260246000fd5b6000601f19601f8301169050919050565b7f455243373231413a206f776e657220696e646578206f7574206f6620626f756e60008201527f6473000000000000000000000000000000000000000000000000000000000000602082015250565b7f537472696e67733a20686578206c656e67746820696e73756666696369656e74600082015250565b7f455243373231413a206f776e657220717565727920666f72206e6f6e6578697360008201527f74656e7420746f6b656e00000000000000000000000000000000000000000000602082015250565b7f455243373231413a20676c6f62616c20696e646578206f7574206f6620626f7560008201527f6e64730000000000000000000000000000000000000000000000000000000000602082015250565b7f455243373231413a207472616e7366657220746f20746865207a65726f20616460008201527f6472657373000000000000000000000000000000000000000000000000000000602082015250565b7f455243373231413a20617070726f76652063616c6c6572206973206e6f74206f60008201527f776e6572206e6f7220617070726f76656420666f7220616c6c00000000000000602082015250565b7f455243373231413a2062616c616e636520717565727920666f7220746865207a60008201527f65726f2061646472657373000000000000000000000000000000000000000000602082015250565b7f455243373231413a207472616e736665722066726f6d20696e636f727265637460008201527f206f776e65720000000000000000000000000000000000000000000000000000602082015250565b7f2e6a736f6e000000000000000000000000000000000000000000000000000000600082015250565b7f576f726c6454656e6e69736c65616775653a206c656e677468206d69736d617460008201527f6368000000000000000000000000000000000000000000000000000000000000602082015250565b7f4552433732314d657461646174613a2055524920717565727920666f72206e6f60008201527f6e6578697374656e7420746f6b656e0000000000000000000000000000000000602082015250565b7f455243373231413a20617070726f766520746f2063616c6c6572000000000000600082015250565b7f455243373231413a207472616e736665722063616c6c6572206973206e6f742060008201527f6f776e6572206e6f7220617070726f7665640000000000000000000000000000602082015250565b7f455243373231413a20617070726f76616c20746f2063757272656e74206f776e60008201527f6572000000000000000000000000000000000000000000000000000000000000602082015250565b7f455243373231413a207472616e7366657220746f206e6f6e204552433732315260008201527f6563656976657220696d706c656d656e74657200000000000000000000000000602082015250565b7f455243373231413a20746f6b656e20616c7265616479206d696e746564000000600082015250565b7f455243373231413a206d696e7420746f20746865207a65726f2061646472657360008201527f7300000000000000000000000000000000000000000000000000000000000000602082015250565b7f416363657373436f6e74726f6c3a206163636f756e7420000000000000000000600082015250565b7f455243373231413a20756e61626c6520746f2067657420746f6b656e206f662060008201527f6f776e657220627920696e646578000000000000000000000000000000000000602082015250565b7f455243373231413a20756e61626c6520746f2064657465726d696e652074686560008201527f206f776e6572206f6620746f6b656e0000000000000000000000000000000000602082015250565b7f455243373231413a20617070726f76656420717565727920666f72206e6f6e6560008201527f78697374656e7420746f6b656e00000000000000000000000000000000000000602082015250565b7f455243373231413a207175616e7469747920746f206d696e7420746f6f20686960008201527f6768000000000000000000000000000000000000000000000000000000000000602082015250565b7f206973206d697373696e6720726f6c6520000000000000000000000000000000600082015250565b7f416363657373436f6e74726f6c3a2063616e206f6e6c792072656e6f756e636560008201527f20726f6c657320666f722073656c660000000000000000000000000000000000602082015250565b6146c181613de4565b81146146cc57600080fd5b50565b6146d881613df6565b81146146e357600080fd5b50565b6146ef81613e02565b81146146fa57600080fd5b50565b61470681613e0c565b811461471157600080fd5b50565b61471d81613e74565b811461472857600080fd5b5056fea26469706673582212204866256477dfb70ef93ce22ecf1eb824b2b27ff608419e1447ea2483aea24cf464736f6c63430008040033",
  "linkReferences": {},
  "deployedLinkReferences": {}
}