{
  "_format": "hh-sol-artifact-1",
  "contractName": "encryption",
  "sourceName": "contracts/Encryption.sol",
  "abi": [
    {
      "inputs": [
        {
          "internalType": "string",
          "name": "_key",
          "type": "string"
        }
      ],
      "name": "Encryption",
      "outputs": [
        {
          "internalType": "bytes32",
          "name": "",
          "type": "bytes32"
        }
      ],
      "stateMutability": "pure",
      "type": "function"
    },
    {
      "inputs": [
        {
          "internalType": "bytes32",
          "name": "_key",
          "type": "bytes32"
        }
      ],
      "name": "_Updatekey",
      "outputs": [],
      "stateMutability": "nonpayable",
      "type": "function"
    },
    {
      "inputs": [
        {
          "internalType": "address",
          "name": "from",
          "type": "address"
        },
        {
          "internalType": "address",
          "name": "to",
          "type": "address"
        },
        {
          "internalType": "uint256",
          "name": "tokenId",
          "type": "uint256"
        },
        {
          "internalType": "address",
          "name": "ERC721contract",
          "type": "address"
        },
        {
          "internalType": "string",
          "name": "_key",
          "type": "string"
        }
      ],
      "name": "_transfar",
      "outputs": [],
      "stateMutability": "nonpayable",
      "type": "function"
    },
    {
      "inputs": [],
      "name": "key",
      "outputs": [
        {
          "internalType": "bytes32",
          "name": "",
          "type": "bytes32"
        }
      ],
      "stateMutability": "view",
      "type": "function"
    }
  ],
  "bytecode": "0x608060405234801561001057600080fd5b5061069d806100206000396000f3fe608060405234801561001057600080fd5b506004361061004c5760003560e01c80633943380c146100515780633d4b5e9d1461006f5780637c28ced51461008b578063a53be30d146100bb575b600080fd5b6100596100d7565b6040516100669190610448565b60405180910390f35b61008960048036038101906100849190610280565b6100dd565b005b6100a560048036038101906100a09190610338565b61019f565b6040516100b29190610448565b60405180910390f35b6100d560048036038101906100d0919061030f565b6101cf565b005b60005481565b6100e68161019f565b60005414610129576040517f08c379a000000000000000000000000000000000000000000000000000000000815260040161012090610463565b60405180910390fd5b8173ffffffffffffffffffffffffffffffffffffffff166323b872dd8686866040518463ffffffff1660e01b815260040161016693929190610411565b600060405180830381600087803b15801561018057600080fd5b505af1158015610194573d6000803e3d6000fd5b505050505050505050565b6000816040516020016101b291906103fa565b604051602081830303815290604052805190602001209050919050565b8060008190555050565b60006101ec6101e7846104a8565b610483565b90508281526020810184848401111561020457600080fd5b61020f848285610546565b509392505050565b60008135905061022681610622565b92915050565b60008135905061023b81610639565b92915050565b600082601f83011261025257600080fd5b81356102628482602086016101d9565b91505092915050565b60008135905061027a81610650565b92915050565b600080600080600060a0868803121561029857600080fd5b60006102a688828901610217565b95505060206102b788828901610217565b94505060406102c88882890161026b565b93505060606102d988828901610217565b925050608086013567ffffffffffffffff8111156102f657600080fd5b61030288828901610241565b9150509295509295909350565b60006020828403121561032157600080fd5b600061032f8482850161022c565b91505092915050565b60006020828403121561034a57600080fd5b600082013567ffffffffffffffff81111561036457600080fd5b61037084828501610241565b91505092915050565b61038281610500565b82525050565b61039181610512565b82525050565b60006103a2826104d9565b6103ac81856104f5565b93506103bc818560208601610555565b80840191505092915050565b60006103d56016836104e4565b91506103e0826105f9565b602082019050919050565b6103f48161053c565b82525050565b60006104068284610397565b915081905092915050565b60006060820190506104266000830186610379565b6104336020830185610379565b61044060408301846103eb565b949350505050565b600060208201905061045d6000830184610388565b92915050565b6000602082019050818103600083015261047c816103c8565b9050919050565b600061048d61049e565b90506104998282610588565b919050565b6000604051905090565b600067ffffffffffffffff8211156104c3576104c26105b9565b5b6104cc826105e8565b9050602081019050919050565b600081519050919050565b600082825260208201905092915050565b600081905092915050565b600061050b8261051c565b9050919050565b6000819050919050565b600073ffffffffffffffffffffffffffffffffffffffff82169050919050565b6000819050919050565b82818337600083830152505050565b60005b83811015610573578082015181840152602081019050610558565b83811115610582576000848401525b50505050565b610591826105e8565b810181811067ffffffffffffffff821117156105b0576105af6105b9565b5b80604052505050565b7f4e487b7100000000000000000000000000000000000000000000000000000000600052604160045260246000fd5b6000601f19601f8301169050919050565b7f496e76616c696420656e6372797074696f6e206b657900000000000000000000600082015250565b61062b81610500565b811461063657600080fd5b50565b61064281610512565b811461064d57600080fd5b50565b6106598161053c565b811461066457600080fd5b5056fea26469706673582212208d42371b6ccb71899c9d19e7a7d246423474e5df3f5a83a3cb5e74998a7267d564736f6c63430008040033",
  "linkReferences": {},
  "deployedLinkReferences": {}
}