{
  "_format": "hh-sol-artifact-1",
  "contractName": "Verify",
  "sourceName": "contracts/Verify.sol",
  "abi": [
    {
      "inputs": [],
      "stateMutability": "nonpayable",
      "type": "constructor"
    },
    {
      "inputs": [
        {
          "internalType": "bool",
          "name": "sayHello",
          "type": "bool"
        }
      ],
      "name": "hello",
      "outputs": [
        {
          "internalType": "string",
          "name": "",
          "type": "string"
        }
      ],
      "stateMutability": "pure",
      "type": "function"
    }
  ],
  "bytecode": "0x608060405234801561001057600080fd5b5061020f806100206000396000f3fe608060405234801561001057600080fd5b506004361061002b5760003560e01c80632dec019414610030575b600080fd5b61004a600480360381019061004591906100d2565b610060565b6040516100579190610134565b60405180910390f35b606081156100a5576040518060400160405280600581526020017f68656c6c6f00000000000000000000000000000000000000000000000000000081525090506100b8565b6040518060200160405280600081525090505b919050565b6000813590506100cc816101c2565b92915050565b6000602082840312156100e457600080fd5b60006100f2848285016100bd565b91505092915050565b600061010682610156565b6101108185610161565b935061012081856020860161017e565b610129816101b1565b840191505092915050565b6000602082019050818103600083015261014e81846100fb565b905092915050565b600081519050919050565b600082825260208201905092915050565b60008115159050919050565b60005b8381101561019c578082015181840152602081019050610181565b838111156101ab576000848401525b50505050565b6000601f19601f8301169050919050565b6101cb81610172565b81146101d657600080fd5b5056fea2646970667358221220155de4c8a0ddbecad88ddac7d5c535f8a7647df09b41861f6aaabb9126eb51fb64736f6c63430008040033",
  "linkReferences": {},
  "deployedLinkReferences": {}
}