{
  "_format": "hh-sol-artifact-1",
  "contractName": "RandomWinnerGame",
  "sourceName": "contracts/RandomWinnerGame .sol",
  "abi": [
    {
      "inputs": [
        {
          "internalType": "address",
          "name": "vrfCoordinator",
          "type": "address"
        },
        {
          "internalType": "address",
          "name": "linkToken",
          "type": "address"
        },
        {
          "internalType": "bytes32",
          "name": "vrfKeyHash",
          "type": "bytes32"
        },
        {
          "internalType": "uint256",
          "name": "vrfFee",
          "type": "uint256"
        }
      ],
      "stateMutability": "nonpayable",
      "type": "constructor"
    },
    {
      "anonymous": false,
      "inputs": [
        {
          "indexed": false,
          "internalType": "uint256",
          "name": "gameId",
          "type": "uint256"
        },
        {
          "indexed": false,
          "internalType": "address",
          "name": "winner",
          "type": "address"
        },
        {
          "indexed": false,
          "internalType": "bytes32",
          "name": "requestId",
          "type": "bytes32"
        }
      ],
      "name": "GameEnded",
      "type": "event"
    },
    {
      "anonymous": false,
      "inputs": [
        {
          "indexed": false,
          "internalType": "uint256",
          "name": "gameId",
          "type": "uint256"
        },
        {
          "indexed": false,
          "internalType": "uint8",
          "name": "maxPlayers",
          "type": "uint8"
        },
        {
          "indexed": false,
          "internalType": "uint256",
          "name": "entryFee",
          "type": "uint256"
        }
      ],
      "name": "GameStarted",
      "type": "event"
    },
    {
      "anonymous": false,
      "inputs": [
        {
          "indexed": true,
          "internalType": "address",
          "name": "previousOwner",
          "type": "address"
        },
        {
          "indexed": true,
          "internalType": "address",
          "name": "newOwner",
          "type": "address"
        }
      ],
      "name": "OwnershipTransferred",
      "type": "event"
    },
    {
      "anonymous": false,
      "inputs": [
        {
          "indexed": false,
          "internalType": "uint256",
          "name": "gameId",
          "type": "uint256"
        },
        {
          "indexed": false,
          "internalType": "address",
          "name": "player",
          "type": "address"
        }
      ],
      "name": "PlayerJoined",
      "type": "event"
    },
    {
      "stateMutability": "payable",
      "type": "fallback"
    },
    {
      "inputs": [],
      "name": "fee",
      "outputs": [
        {
          "internalType": "uint256",
          "name": "",
          "type": "uint256"
        }
      ],
      "stateMutability": "view",
      "type": "function"
    },
    {
      "inputs": [],
      "name": "gameId",
      "outputs": [
        {
          "internalType": "uint256",
          "name": "",
          "type": "uint256"
        }
      ],
      "stateMutability": "view",
      "type": "function"
    },
    {
      "inputs": [],
      "name": "gameStarted",
      "outputs": [
        {
          "internalType": "bool",
          "name": "",
          "type": "bool"
        }
      ],
      "stateMutability": "view",
      "type": "function"
    },
    {
      "inputs": [],
      "name": "joinGame",
      "outputs": [],
      "stateMutability": "payable",
      "type": "function"
    },
    {
      "inputs": [],
      "name": "keyHash",
      "outputs": [
        {
          "internalType": "bytes32",
          "name": "",
          "type": "bytes32"
        }
      ],
      "stateMutability": "view",
      "type": "function"
    },
    {
      "inputs": [],
      "name": "owner",
      "outputs": [
        {
          "internalType": "address",
          "name": "",
          "type": "address"
        }
      ],
      "stateMutability": "view",
      "type": "function"
    },
    {
      "inputs": [
        {
          "internalType": "uint256",
          "name": "",
          "type": "uint256"
        }
      ],
      "name": "players",
      "outputs": [
        {
          "internalType": "address",
          "name": "",
          "type": "address"
        }
      ],
      "stateMutability": "view",
      "type": "function"
    },
    {
      "inputs": [
        {
          "internalType": "bytes32",
          "name": "requestId",
          "type": "bytes32"
        },
        {
          "internalType": "uint256",
          "name": "randomness",
          "type": "uint256"
        }
      ],
      "name": "rawFulfillRandomness",
      "outputs": [],
      "stateMutability": "nonpayable",
      "type": "function"
    },
    {
      "inputs": [],
      "name": "renounceOwnership",
      "outputs": [],
      "stateMutability": "nonpayable",
      "type": "function"
    },
    {
      "inputs": [
        {
          "internalType": "uint8",
          "name": "_maxPlayers",
          "type": "uint8"
        },
        {
          "internalType": "uint256",
          "name": "_entryFee",
          "type": "uint256"
        }
      ],
      "name": "startGame",
      "outputs": [],
      "stateMutability": "nonpayable",
      "type": "function"
    },
    {
      "inputs": [
        {
          "internalType": "address",
          "name": "newOwner",
          "type": "address"
        }
      ],
      "name": "transferOwnership",
      "outputs": [],
      "stateMutability": "nonpayable",
      "type": "function"
    },
    {
      "stateMutability": "payable",
      "type": "receive"
    }
  ],
  "bytecode": "0x60c06040523480156200001157600080fd5b5060405162001b0438038062001b0483398181016040528101906200003791906200020f565b83838173ffffffffffffffffffffffffffffffffffffffff1660a08173ffffffffffffffffffffffffffffffffffffffff1660601b815250508073ffffffffffffffffffffffffffffffffffffffff1660808173ffffffffffffffffffffffffffffffffffffffff1660601b815250505050620000c9620000bd620000fc60201b60201c565b6200010460201b60201c565b81600381905550806002819055506000600560016101000a81548160ff0219169083151502179055505050505062000311565b600033905090565b6000600160009054906101000a900473ffffffffffffffffffffffffffffffffffffffff16905081600160006101000a81548173ffffffffffffffffffffffffffffffffffffffff021916908373ffffffffffffffffffffffffffffffffffffffff1602179055508173ffffffffffffffffffffffffffffffffffffffff168173ffffffffffffffffffffffffffffffffffffffff167f8be0079c531659141344cd1fd0a4f28419497f9722a3daafe3b4186f6b6457e060405160405180910390a35050565b600081519050620001db81620002c3565b92915050565b600081519050620001f281620002dd565b92915050565b6000815190506200020981620002f7565b92915050565b600080600080608085870312156200022657600080fd5b60006200023687828801620001ca565b94505060206200024987828801620001ca565b93505060406200025c87828801620001e1565b92505060606200026f87828801620001f8565b91505092959194509250565b6000620002888262000299565b9050919050565b6000819050919050565b600073ffffffffffffffffffffffffffffffffffffffff82169050919050565b6000819050919050565b620002ce816200027b565b8114620002da57600080fd5b50565b620002e8816200028f565b8114620002f457600080fd5b50565b6200030281620002b9565b81146200030e57600080fd5b50565b60805160601c60a05160601c6117b96200034b600039600081816102b20152610af60152600081816109b30152610aba01526117b96000f3fe6080604052600436106100a05760003560e01c8063d4f77b1c11610064578063d4f77b1c1461016a578063d7c81b5514610174578063ddca3f431461019f578063e849c38e146101ca578063f2fde38b146101f3578063f71d96cb1461021c576100a7565b80635e123ce4146100a957806361728f39146100d4578063715018a6146100ff5780638da5cb5b1461011657806394985ddd14610141576100a7565b366100a757005b005b3480156100b557600080fd5b506100be610259565b6040516100cb9190611106565b60405180910390f35b3480156100e057600080fd5b506100e961026c565b6040516100f69190611121565b60405180910390f35b34801561010b57600080fd5b50610114610272565b005b34801561012257600080fd5b5061012b610286565b60405161013891906110ad565b60405180910390f35b34801561014d57600080fd5b5061016860048036038101906101639190610d92565b6102b0565b005b61017261034c565b005b34801561018057600080fd5b50610189610501565b60405161019691906112ca565b60405180910390f35b3480156101ab57600080fd5b506101b4610507565b6040516101c191906112ca565b60405180910390f35b3480156101d657600080fd5b506101f160048036038101906101ec9190610e20565b61050d565b005b3480156101ff57600080fd5b5061021a60048036038101906102159190610d40565b61061c565b005b34801561022857600080fd5b50610243600480360381019061023e9190610dce565b6106a0565b60405161025091906110ad565b60405180910390f35b600560019054906101000a900460ff1681565b60035481565b61027a6106df565b610284600061075d565b565b6000600160009054906101000a900473ffffffffffffffffffffffffffffffffffffffff16905090565b7f000000000000000000000000000000000000000000000000000000000000000073ffffffffffffffffffffffffffffffffffffffff163373ffffffffffffffffffffffffffffffffffffffff161461033e576040517f08c379a00000000000000000000000000000000000000000000000000000000081526004016103359061128a565b60405180910390fd5b6103488282610823565b5050565b600560019054906101000a900460ff1661039b576040517f08c379a0000000000000000000000000000000000000000000000000000000008152600401610392906111ca565b60405180910390fd5b60065434146103df576040517f08c379a00000000000000000000000000000000000000000000000000000000081526004016103d69061124a565b60405180910390fd5b600560009054906101000a900460ff1660ff1660048054905010610438576040517f08c379a000000000000000000000000000000000000000000000000000000000815260040161042f906111aa565b60405180910390fd5b6004339080600181540180825580915050600190039060005260206000200160009091909190916101000a81548173ffffffffffffffffffffffffffffffffffffffff021916908373ffffffffffffffffffffffffffffffffffffffff1602179055507f87969bc7faf902221a147b95ceba76e011c5efb0339a0a8ee7a2bb82d9cfbbd6600754336040516104ce9291906112e5565b60405180910390a1600560009054906101000a900460ff1660ff1660048054905014156104ff576104fd6109ac565b505b565b60075481565b60025481565b6105156106df565b600560019054906101000a900460ff1615610565576040517f08c379a000000000000000000000000000000000000000000000000000000000815260040161055c906112aa565b60405180910390fd5b600460006105739190610c84565b81600560006101000a81548160ff021916908360ff1602179055506001600560016101000a81548160ff021916908315150217905550806006819055506001600760008282546105c391906113b4565b925050819055507f10a7675bf1b19b67834ca5a59866847fd31c62cdfc8e9466039e6b8e088e15ae600754600560009054906101000a900460ff1660065460405161061093929190611345565b60405180910390a15050565b6106246106df565b600073ffffffffffffffffffffffffffffffffffffffff168173ffffffffffffffffffffffffffffffffffffffff161415610694576040517f08c379a000000000000000000000000000000000000000000000000000000000815260040161068b906111ea565b60405180910390fd5b61069d8161075d565b50565b600481815481106106b057600080fd5b906000526020600020016000915054906101000a900473ffffffffffffffffffffffffffffffffffffffff1681565b6106e7610aae565b73ffffffffffffffffffffffffffffffffffffffff16610705610286565b73ffffffffffffffffffffffffffffffffffffffff161461075b576040517f08c379a00000000000000000000000000000000000000000000000000000000081526004016107529061126a565b60405180910390fd5b565b6000600160009054906101000a900473ffffffffffffffffffffffffffffffffffffffff16905081600160006101000a81548173ffffffffffffffffffffffffffffffffffffffff021916908373ffffffffffffffffffffffffffffffffffffffff1602179055508173ffffffffffffffffffffffffffffffffffffffff168173ffffffffffffffffffffffffffffffffffffffff167f8be0079c531659141344cd1fd0a4f28419497f9722a3daafe3b4186f6b6457e060405160405180910390a35050565b60006004805490508261083691906114b0565b9050600060048281548110610874577f4e487b7100000000000000000000000000000000000000000000000000000000600052603260045260246000fd5b9060005260206000200160009054906101000a900473ffffffffffffffffffffffffffffffffffffffff16905060008173ffffffffffffffffffffffffffffffffffffffff16476040516108c790611098565b60006040518083038185875af1925050503d8060008114610904576040519150601f19603f3d011682016040523d82523d6000602084013e610909565b606091505b505090508061094d576040517f08c379a00000000000000000000000000000000000000000000000000000000081526004016109449061120a565b60405180910390fd5b7fd2da138ec4b828f6f1dd931eea0488e41e941f7cda657ad8f524ede8cb2c7ce060075483876040516109829392919061130e565b60405180910390a16000600560016101000a81548160ff0219169083151502179055505050505050565b60006002547f000000000000000000000000000000000000000000000000000000000000000073ffffffffffffffffffffffffffffffffffffffff166370a08231306040518263ffffffff1660e01b8152600401610a0a91906110ad565b60206040518083038186803b158015610a2257600080fd5b505afa158015610a36573d6000803e3d6000fd5b505050506040513d601f19601f82011682018060405250810190610a5a9190610df7565b1015610a9b576040517f08c379a0000000000000000000000000000000000000000000000000000000008152600401610a929061122a565b60405180910390fd5b610aa9600354600254610ab6565b905090565b600033905090565b60007f000000000000000000000000000000000000000000000000000000000000000073ffffffffffffffffffffffffffffffffffffffff16634000aea07f000000000000000000000000000000000000000000000000000000000000000084866000604051602001610b2a92919061113c565b6040516020818303038152906040526040518463ffffffff1660e01b8152600401610b57939291906110c8565b602060405180830381600087803b158015610b7157600080fd5b505af1158015610b85573d6000803e3d6000fd5b505050506040513d601f19601f82011682018060405250810190610ba99190610d69565b506000610bcb8460003060008089815260200190815260200160002054610c15565b9050600160008086815260200190815260200160002054610bec91906113b4565b60008086815260200190815260200160002081905550610c0c8482610c51565b91505092915050565b600084848484604051602001610c2e9493929190611165565b6040516020818303038152906040528051906020012060001c9050949350505050565b60008282604051602001610c6692919061106c565b60405160208183030381529060405280519060200120905092915050565b5080546000825590600052602060002090810190610ca29190610ca5565b50565b5b80821115610cbe576000816000905550600101610ca6565b5090565b600081359050610cd181611710565b92915050565b600081519050610ce681611727565b92915050565b600081359050610cfb8161173e565b92915050565b600081359050610d1081611755565b92915050565b600081519050610d2581611755565b92915050565b600081359050610d3a8161176c565b92915050565b600060208284031215610d5257600080fd5b6000610d6084828501610cc2565b91505092915050565b600060208284031215610d7b57600080fd5b6000610d8984828501610cd7565b91505092915050565b60008060408385031215610da557600080fd5b6000610db385828601610cec565b9250506020610dc485828601610d01565b9150509250929050565b600060208284031215610de057600080fd5b6000610dee84828501610d01565b91505092915050565b600060208284031215610e0957600080fd5b6000610e1784828501610d16565b91505092915050565b60008060408385031215610e3357600080fd5b6000610e4185828601610d2b565b9250506020610e5285828601610d01565b9150509250929050565b610e658161140a565b82525050565b610e748161141c565b82525050565b610e8381611428565b82525050565b610e9a610e9582611428565b61149c565b82525050565b6000610eab8261137c565b610eb58185611387565b9350610ec5818560208601611469565b610ece8161153f565b840191505092915050565b6000610ee6600c836113a3565b9150610ef182611550565b602082019050919050565b6000610f09601d836113a3565b9150610f1482611579565b602082019050919050565b6000610f2c6026836113a3565b9150610f37826115a2565b604082019050919050565b6000610f4f6014836113a3565b9150610f5a826115f1565b602082019050919050565b6000610f72600f836113a3565b9150610f7d8261161a565b602082019050919050565b6000610f956023836113a3565b9150610fa082611643565b604082019050919050565b6000610fb86020836113a3565b9150610fc382611692565b602082019050919050565b6000610fdb601f836113a3565b9150610fe6826116bb565b602082019050919050565b6000610ffe600083611398565b9150611009826116e4565b600082019050919050565b60006110216019836113a3565b915061102c826116e7565b602082019050919050565b61104081611452565b82525050565b61105761105282611452565b6114a6565b82525050565b6110668161145c565b82525050565b60006110788285610e89565b6020820191506110888284611046565b6020820191508190509392505050565b60006110a382610ff1565b9150819050919050565b60006020820190506110c26000830184610e5c565b92915050565b60006060820190506110dd6000830186610e5c565b6110ea6020830185611037565b81810360408301526110fc8184610ea0565b9050949350505050565b600060208201905061111b6000830184610e6b565b92915050565b60006020820190506111366000830184610e7a565b92915050565b60006040820190506111516000830185610e7a565b61115e6020830184611037565b9392505050565b600060808201905061117a6000830187610e7a565b6111876020830186611037565b6111946040830185610e5c565b6111a16060830184611037565b95945050505050565b600060208201905081810360008301526111c381610ed9565b9050919050565b600060208201905081810360008301526111e381610efc565b9050919050565b6000602082019050818103600083015261120381610f1f565b9050919050565b6000602082019050818103600083015261122381610f42565b9050919050565b6000602082019050818103600083015261124381610f65565b9050919050565b6000602082019050818103600083015261126381610f88565b9050919050565b6000602082019050818103600083015261128381610fab565b9050919050565b600060208201905081810360008301526112a381610fce565b9050919050565b600060208201905081810360008301526112c381611014565b9050919050565b60006020820190506112df6000830184611037565b92915050565b60006040820190506112fa6000830185611037565b6113076020830184610e5c565b9392505050565b60006060820190506113236000830186611037565b6113306020830185610e5c565b61133d6040830184610e7a565b949350505050565b600060608201905061135a6000830186611037565b611367602083018561105d565b6113746040830184611037565b949350505050565b600081519050919050565b600082825260208201905092915050565b600081905092915050565b600082825260208201905092915050565b60006113bf82611452565b91506113ca83611452565b9250827fffffffffffffffffffffffffffffffffffffffffffffffffffffffffffffffff038211156113ff576113fe6114e1565b5b828201905092915050565b600061141582611432565b9050919050565b60008115159050919050565b6000819050919050565b600073ffffffffffffffffffffffffffffffffffffffff82169050919050565b6000819050919050565b600060ff82169050919050565b60005b8381101561148757808201518184015260208101905061146c565b83811115611496576000848401525b50505050565b6000819050919050565b6000819050919050565b60006114bb82611452565b91506114c683611452565b9250826114d6576114d5611510565b5b828206905092915050565b7f4e487b7100000000000000000000000000000000000000000000000000000000600052601160045260246000fd5b7f4e487b7100000000000000000000000000000000000000000000000000000000600052601260045260246000fd5b6000601f19601f8301169050919050565b7f47616d652069732066756c6c0000000000000000000000000000000000000000600082015250565b7f47616d6520686173206e6f74206265656e207374617274656420796574000000600082015250565b7f4f776e61626c653a206e6577206f776e657220697320746865207a65726f206160008201527f6464726573730000000000000000000000000000000000000000000000000000602082015250565b7f4661696c656420746f2073656e64204574686572000000000000000000000000600082015250565b7f4e6f7420656e6f756768204c494e4b0000000000000000000000000000000000600082015250565b7f56616c75652073656e74206973206e6f7420657175616c20746f20656e74727960008201527f4665650000000000000000000000000000000000000000000000000000000000602082015250565b7f4f776e61626c653a2063616c6c6572206973206e6f7420746865206f776e6572600082015250565b7f4f6e6c7920565246436f6f7264696e61746f722063616e2066756c66696c6c00600082015250565b50565b7f47616d652069732063757272656e746c792072756e6e696e6700000000000000600082015250565b6117198161140a565b811461172457600080fd5b50565b6117308161141c565b811461173b57600080fd5b50565b61174781611428565b811461175257600080fd5b50565b61175e81611452565b811461176957600080fd5b50565b6117758161145c565b811461178057600080fd5b5056fea26469706673582212201e4131bb273b79d46b68c2f50dc2f56825cab4980b0d2340406dca791319f80d64736f6c63430008040033",
  "linkReferences": {},
  "deployedLinkReferences": {}
}